S02A000063706B686D695F72613870315F7A665F6465766963655F6970733230305F64656D6F2E7372656324
S31502000000202600224D3B0002F5390002493B000240
S31502000010493B0002493B0002493B0002493B0002C0
S31502000020000000000000000000000000493B000242
S31502000030493B000200000000493B0002493B000226
S3150200004081240002D9230002112500025D25000247
S31502000050212C0002B12B0002A52C0002E92C000281
S3150200006009350002811C0002BD1D0002C1340002D6
S315020000704001F0000100FFFF00F800001040000000
S3150200008000040000D8460202DD0F00020000000054
S315020000900000000000020000010009DF0ADF0AFF7B
S315020000A00AFF000000001028000000000000000007
S315020000B00000800000000000030000006C300022F7
S315020000C054000022000000006C300022D4300022CE
S315020000D03C31002200000000000000000000000089
S315020000E00000000000000000000000000000000008
S315020000F000000000000000000000000000000000F8
S3150200010000000000000000000000000000000000E7
S315020001104300000000000000000000000000000094
S3150200012000000000000000000000000000000000C7
S315020001304300000000000000000000000000000074
S3150200014000000000000000000000000000000000A7
S315020001504300000000000000000000000000000054
S315020001600000000000000000000000000000000087
S315020001704300000000000000000000000000000034
S315020001800000000000000000000000000000000067
S315020001904300000000000000000000000000000014
S315020001A00000000000000000000000000000000047
S315020001B043000000000000000000000000000000F4
S315020001C00000000000000000000000000000000027
S315020001D043000000000000000000000000000000D4
S315020001E00000000000000000000000000000000007
S315020001F0296600020566000200000000584D020250
S31502000200534C02023F4C02023F4C02023F4C020296
S315020002103F4C02023F4C02023F4C02023F4C02029A
S315020002203F4C02023F4C0202FFFFFFFFFFFFFFFFB0
S31502000230FFFFFFFFFFFF0000010041534349490052
S3150200024000000000000000000000000000000000A6
S31502000250000000000000000000004153434949002D
S315020002600000000000000000000000000000000086
S311020002700000000000000000000000007A
S315020002800348044B834202D0034B03B1184770471D
S315020002900C0200220C02002200000000064B074955
S315020002A0C91A891048BF0131491003D0044B0BB15A
S315020002B001481847704700BF0C0200220C020022B8
S315020002C00000000010B5064C237843B9FFF7D8FFAB
S315020002D0044B13B10448AFF300800123237010BD11
S315020002E0502600220000000028F1C90208B5054B7D
S315020002F01BB105490548AFF30080BDE80840FFF78A
S31502000300CDBF00BF000000005426002228F1C9021A
S315020003104A0010B51DD04FF0010E541E02EB0E031B
S3150200032024FA0EF47444734588BFA64600234EF0A1
S3150200033001E00D4902384C1C30F802CF4FEA1C2C62
S3150200034001F803C0B0F800C004F803C002330FF08E
S315020003500DC806480723816800688C680249A446CE
S31502000360BDE81040604700BF70260022A046020288
S3150200037070B506460E4B0F4D9C6882B0E3690022AB
S3150200038040F6013128468DF80760984707230A4947
S3150200039001228868866808680DEB0301B0470122CE
S315020003A040F601312846E369984702B070BD00BFA6
S315020003B054460202002D0022A04602022DE9F04711
S315020003C00D4616461C460746DFF8D0A0DFF8D08059
S315020003D0BAF800C0DFF8CC90844582B0414694BF9B
S315020003E0002001209E2200F09BFDB9F80000414644
S315020003F0A84294BF002001209F2200F091FDBAF886
S3150200040000004146B04294BF00200120A02200F025
S3150200041087FDB9F800004146A04294BF00200120A2
S31502000420A12200F07DFD2A20FFF7A2FF1A4B7FBA18
S31502000430D3F80880D3F80090ADF8047001A9072319
S3150200044002224846D8F8087076BAB847ADF8046072
S3150200045001A9072302224846D8F80860B0476DBAB8
S315020004602B20FFF785FFADF8045001A907230222CE
S315020004704846D8F8085064BAA847ADF8044007239E
S3150200048002224846D8F8084001A9A0472C2002B00B
S31502000490BDE8F047FFF76CBFA04602020200002249
S315020004A094660002000000222DE9F843244A254DF5
S315020004B0D2F808906A462B8800AF5B000733DB0848
S315020004C0A2EBC3039D4600224FF43061D9F81C30DB
S315020004D01D48984700211D4E2A883388013A013B60
S315020004E008469BB292B2FFF769FF2988E84681B1B6
S315020004F04FEA410EAEF1020E4FEA5E0E0EF1010E0A
S3150200050043464EF001E0124A128823F8022B0FF0FE
S3150200051005C0338800240BB908E029884046FFF756
S31502000520F7FE01343288A3B29A42F6D801224FF47A
S315020005303061D9F81C3004489847BD46BDE8F883B7
S315020005405446020202000022002D00220000002270
S31502000550060000222DE9F843244A254DD2F80890D8
S315020005606A462B8800AF5B000733DB08A2EBC303A6
S315020005709D4600224FF43061D9F81C3004461D48CE
S31502000580984700211C4E2A883388013A013B0846C7
S315020005909BB292B2FFF712FF2988E84671B14FEA81
S315020005A0410EAEF1020E4FEA5E0E0EF1010E434609
S315020005B04EF001E023F8024B0FF005C03388002409
S315020005C00BB908E029884046FFF7A2FE01343288BB
S315020005D0A3B29A42F6D801224FF43061D9F81C3000
S315020005E004489847BD46BDE8F88300BF5446020258
S315020005F002000022002D0022000000222DE9F04315
S315020006000F466A4B06461B88C1B0834294BF002040
S3150200061001206749904640F28B1200F081FC654B3F
S315020006204FF4C67218886249B84294BF002001206E
S3150200063000F076FC604B00229C684FF43061E3695F
S315020006405E4898475E4B1D78002D67D0012D5CD120
S3150200065007F10F03F21D394630469BB292B2FFF7FD
S31502000660ADFE584A0026B2F800E06A46564B574D90
S31502000670A8F12008B3F800C005EB081520AF4FF02B
S315020006800008082015F8013BE97913F0010F14BFA1
S31502000690E146F146013822F818904FEA530308F171
S315020006A00808F2D11046BB1A103B1B09013311F0A0
S315020006B0010F14BFE046F046013B00F110004FEA7D
S315020006C05101A0F87080F2D10136082E07F1020717
S315020006D002F10202D3D14FF0800E4EF001E03C4B04
S315020006E0ADF1020131F8022F0233100A03F8020CAF
S315020006F003F8012C0FF00BC03648072381684FF42C
S3150200070080728D6800683249A84701224FF4306131
S31502000710E3692A4841B0BDE8F0431847FB1D721D44
S31502000720394630469BB292B2FFF748FEAC466D465A
S315020007302449254A284BA8F1200808EB48080F88C7
S31502000740168803EB480E002108221EF8013B13F01F
S31502000750010F14BF30463846013A25F811004FEA18
S31502000760530301F10601F2D10CF1010CBCF1060FA3
S3150200077005F10205E7D14FF0300E4EF001E0144BC1
S31502000780ADF1020131F8022F0233100A03F8020C0E
S3150200079003F8012C0FF00BC00E4807238168602274
S315020007A08D6800680A49A847AFE700BF0200002229
S315020007B0946600020000002254460202002D002226
S315020007C0040000220600002208000022384002022D
S315020007D070260022A0460202103E02022DE9F04FC8
S315020007E089469B4614468246584A8BB01588584914
S315020007F0854294BF002001204FF455729DF8507037
S31502000800BDF8546000F08CFB524B40F2553218880A
S315020008104F49484594BF0020012000F081FBBBF1FF
S31502000820000018BF012040F25632494900F078FB19
S31502000830494B0022D3F808804FF43061D8F81C30B7
S315020008404648E5080095984707FB04A2504604F17E
S31502000850FF3A013A09EB0A03494692B29BB2FFF705
S31502000860ADFD002C67D0E308781E03FB0AF54FF0B6
S31502000870000C2346C0B2002F40D02A46E708454660
S315020008805C461946DFF8DC90009000F1010E5FB37A
S31502000890334BCDE9044CD3F808A0D3F800800346C5
S315020008A0CDE90601039501920297029A0BEB020724
S315020008B000971F46082407E007230222404609A99B
S315020008C0ADF824C0A847F4B19BF80030013C23419F
S315020008D0DB07DAF8085096FA96FCEDD4B9F800C0B0
S315020008E007239CFA9CFCE8E7BEF1010EFCD10CF151
S315020008F0010C8C453C441DD0A346C5E7013B1AD0EA
S31502000900013BFBD117E0009B0BF1010B5B45D1D1FB
S315020009107B1E019ADBB2FF2B9344C6D1DDE90601A9
S31502000920DDE90354DDF814C0029F0CF1010C8C457D
S315020009303C44E1D1A84601224FF43061D8F81C307C
S3150200094006480BB0BDE8F04F184700BF0200002270
S31502000950946600020000002254460202002D002284
S31502000960A0460202060000222DE9F04F0C469346ED
S31502000970DFF8188187B0B8F80070BDF844208742C6
S315020009808146404994BF00200120059240F2BF32C1
S31502000990109D1E4600F0C4FA3B4B4FF47072188845
S315020009A03849A04294BF0020012000F0B9FA281E5F
S315020009B040F2C13218BF0120324900F0B1FA2A785A
S315020009C0BBF1060F0EBF4FF0080A4FF0080B4FF0AF
S315020009D0100A002A53D00BEB0903CDF80CB094464B
S315020009E0A34604934C461EE0039B1F19B8F8003039
S315020009F09F420BDD244B0AEB0B011B881FFA81FB7E
S31502000A000BEB0A029A423ADC4C46049F20464FFA06
S31502000A108CF259460135FFF7F1FD95F800C0BCB2DC
S31502000A20BCF1000F2BD00CF12003DBB20F2BDBD86D
S31502000A30284600F093FA0346B8F8000037198742B1
S31502000A400CDD114A0BEB060112881FFA81FB0BEB38
S31502000A500600904213DC4C4606EB090743B1059AA1
S31502000A60204601920122594600923246FFF7B6FE0F
S31502000A7095F803C00335BCB2BCF1000FD3D107B061
S31502000A80BDE8F08F946600020000002202000022F8
S31502000A902DE9F04F244B254E9C681D68596828465F
S31502000AA0226883B090473378012B40F22682023BBC
S31502000AB0012B06D84FF4A072F0201D4B1D491A8057
S31502000AC008801D4B0022D3F808A040F60231DAF85E
S31502000AD01C301A4898474FF47A71052002F046FFF7
S31502000AE00122DAF81C3040F60231144898474FF4D6
S31502000AF07A71052002F03AFFDAF81C3000224FF430
S31502000B0030610E4898471120FFF732FC3620FFF776
S31502000B102FFC3378032B00F2F881DFE813F0EC01A7
S31502000B20EA01E801110000BFA0460202F0280022F5
S31502000B30020000220000002254460202002D00227A
S31502000B40A0270DF107068DF807700723012231460B
S31502000B502846A768B8473A20FFF70AFC4FF0050176
S31502000B604FF00C088DF80710072331460122A768BB
S31502000B702846B847B220FFF7FBFB8DF807803146BF
S31502000B80A768072301222846B8478DF80780314611
S31502000B90A768072301222846B84700214FF0330BE6
S31502000BA08DF80710A7683146072301222846B84761
S31502000BB08DF807B03146A768072301222846B847B1
S31502000BC08DF807B0314607230122A7682846B847A1
S31502000BD0B720FFF7CDFB35238DF8073031460723C3
S31502000BE00122A7682846B847BB20FFF7C1FB4FF092
S31502000BF029014FF001088DF807100723314601221B
S31502000C00A7682846B847C220FFF7B2FB8DF80780CF
S31502000C10424631460723A7682846B847C320FFF74E
S31502000C20A7FB19238DF80730424631460723A768EA
S31502000C302846B847C420FFF79BFB20238DF80730D0
S31502000C40424631460723A7682846B847C520FFF71C
S31502000C508FFB1A238DF80730424631460723A768D1
S31502000C602846B847C620FFF783FB1F238DF80730B7
S31502000C70424631460723A7682846B847D020FFF7E1
S31502000C8077FBA4238DF8073042463146A76807232F
S31502000C902846B847A1238DF8073042463146072336
S31502000CA0A7682846B847E020FFF762FB6FF02F02DD
S31502000CB08DF8072031464246A76807232846B847DB
S31502000CC04FF008018DF8071042463146A768072300
S31502000CD02846B8474FF00E004FF009098DF8070075
S31502000CE042463146A76807232846B8478DF807903B
S31502000CF042463146A76807232846B8478DF807902B
S31502000D0042463146A76807232846B8474FF00503EF
S31502000D108DF8073042463146A76807232846B8476A
S31502000D204FF031028DF8072031464246A768072365
S31502000D302846B8478DF807B042463146A7680723CA
S31502000D402846B8474FF048078DF8077042463146A5
S31502000D50A76807232846B8474FF0170C8DF807C037
S31502000D6042463146A76807232846B8474FF0140E75
S31502000D708DF807E042463146A76807232846B8475A
S31502000D804FF015028DF8072031464246A768072321
S31502000D902846B8474FF031028DF8072031464246C1
S31502000DA0A76807232846B8474FF034028DF8072074
S31502000DB0314642460723A7682846B847E120FFF78F
S31502000DC0D7FA6FF02F038DF8073042463146A768EF
S31502000DD007232846B8474FF008018DF80710424608
S31502000DE03146A76807232846B8474FF00E008DF80C
S31502000DF0070042463146A76807232846B8478DF8BA
S31502000E00079042463146A76807232846B8478DF819
S31502000E1007904FF0150942463146A7680723284630
S31502000E20B8478DF8079042463146A76807232846F9
S31502000E30B8474FF031028DF8072031464246A7687F
S31502000E4007232846B8478DF807B042463146A768B9
S31502000E5007232846B8474FF048078DF807704246E1
S31502000E603146A76807232846B8474FF0170C8DF876
S31502000E7007C042463146A76807232846B8474FF0BF
S31502000E80140E8DF807E042463146A7680723284626
S31502000E90B8478DF8079042463146A7680723284689
S31502000EA0B8474FF031038DF8073042463146A768FE
S31502000EB007232846B8474FF034028DF807203146FB
S31502000EC0424607232846A468A0472120FFF750FA86
S31502000ED02920FFF74DFA4FF430614246DAF81C300A
S31502000EE00B48984703B0BDE8F04FFFF7DDBA70270D
S31502000EF027E6C02725E6002723E6F0224FF4A07056
S31502000F00044B05491A800880DBE50DF1070622E647
S31502000F10002D00220200002200000022704700BFBE
S31502000F2000B1704708B5024803F062FCFEE700BF55
S31502000F30B4660002024BD3E9011218681268104720
S31502000F406046020210B5044B9C681868A3681446F2
S31502000F509847204610BD00BF6046020230B5124DCA
S31502000F6000212B4640F60552044690F800E005E0C3
S31502000F70013A01F1010103F1240313D093F800C0F1
S31502000F80F445F5D1587894F801C06045F0D193F84C
S31502000F9002C0A0788445EBD101EBC10105EB8100CB
S31502000FA0043030BD002030BD5869000208B506493C
S31502000FB0064800F06BFB00B908BD0C21044B054A3C
S31502000FC0054802F0CBFC00BF10000022682D00226B
S31502000FD0D46600023C460202E86600020388202B21
S31502000FE003D101220D4B1A600388022B03D1012281
S31502000FF00B4B1A600388012B03D10022084B1A609F
S315020010000388802B03D10122064B1A600388B3F5AD
S31502001010807F02D10222034B1A607047FC2C002209
S31502001020F82C0022F42C00222DE9F0434FF4007E26
S3150200103000234FF01A0C4EF001E087B05149CDE97A
S315020010400233CDE90433504C484201934318A4FBC2
S315020010500352D2080CFB1233413301F8013F0FF061
S315020010600BC86946494800F015F9002877D19DF862
S315020010700230002B5AD04FF47A71012002F076FC2E
S31502001080424801A900F0EEFB002874D10123404931
S315020010901A463E4800F09AF9002866D1DFF82091F8
S315020010A0D9F80030002BFBD0012300241A46394917
S315020010B03648C9F8004000F0B1FA002849D1D9F8FB
S315020010C00030002BFBD00023334CDFF8F880334F7F
S315020010D004F500766542C9F8003005E014F8010F00
S315020010E003F098FBB4420ED02B1908FB03F3B7EBBF
S315020010F0730FF3D3202003F08DFB14F8010F03F0D6
S3150200110089FBB442F0D14FF400722149214803F021
S31502001110C7FC28B1224803F0DBFB07B0BDE8F08329
S31502001120204803F0D5FB07B0BDE8F0831E4C2368C8
S315020011305BB91E4D284603F0CBFB4FF47A71084685
S3150200114002F014FC2368002BF4D0194803F0C0FB0C
S3150200115091E75021174B184A184802F0FFFB3C2131
S31502001160144B154A154802F0F9FB4B21114B124A52
S31502001170124802F0F3FB48210E4B0F4A0F4802F0C9
S31502001180EDFB00BFF32800224FECC44E682D00226F
S31502001190F4280022F42A0022F32A0022899DD80983
S315020011A06067000244670002F82C00221067000202
S315020011B024670002D466000228460202E86600029C
S315020011C0FC2C0022C54EECC4002330B585B08DF848
S315020011D00F30FFF7AFFEFFF75BFCFFF7E7FEFFF707
S315020011E023FF1B4BD3E9011418682268904728B1E4
S315020011F01421184B184A194802F0B0FB4FF6FF703B
S31502001200FFF7A8F9FFF750F94FF478421023144D6F
S315020012101E21CDE900520A201A46FFF7A5FB114D01
S315020012204FF47A71084602F0A1FBA3690DF10F0291
S315020012304FF48571284698479DF80F204FF4857123
S31502001240C2F101022846E369D2B29847E8E700BF35
S31502001250544602027C670002484602029067000278
S31502001260A4670002002D0022022800D0704702491E
S31502001270024801F0D1BE00BF04470202002D00223F
S31502001280006800F0ADBC00BF08B5FFF79DFF002067
S3150200129008BD00BF42680346127E012A11BF012221
S315020012A0026A926BC2F340128A70827F00200A7031
S315020012B01B6ADB6B03F48143803B18BF01234B702F
S315020012C0704700BF002370B44FF4F946046A95B222
S315020012D0A363046A120CE363046A4362236C23F079
S315020012E0010343F004032364036A5E64046AA36C85
S315020012F043F44073A364036A9D60036ADA60036A77
S31502001300196070BC704700BFF0B402274468066AD1
S315020013106468756C646845F4407524687564056A8A
S3150200132043EA020C1CF0030FC5F8B0711ED000F19F
S315020013303C05A5600026C0E90B3101230D4D8263F1
S31502001340466380F828302560036A0332603389B227
S31502001350C2F38F026360A181E2814368F0BC5B68DD
S31502001360D3E901121868096852681047024DA36052
S31502001370E9E700BF000028A0000018A0D0F83C3220
S315020013801BB310B5D0F8403204468C4684B0D3B1B4
S3150200139093E807000DF1100E0EE907009CE807001E
S315020013A083E80700D4F8442218469A60D4F83C32FF
S315020013B09847D4F8403223B104AA12E9070083E819
S315020013C0070004B010BD0B46ECE770472DE9F04765
S315020013D01E46036A0446D86B00F48140802860D119
S315020013E01746A27F002A6AD0627A002A5ED14FF09F
S315020013F0020A60685A6CD0F804C0D0F81480DCF88F
S31502001400040042F44072D0F800905A64236A0D46F2
S31502001410C3F8B0A141EA08039B0755D004F13C0387
S315020014204246184603F0AFFB012245442A4BC9F84F
S31502001430040084F828A0E5622663C4F83880626353
S31502001440C9F80030236A08F103086033C9F8083086
S31502001450C8F38F08B3B2A9F80C30A9F80E806368F6
S315020014605B68D3E901121868096852689047054615
S3150200147078BB6368227F5B690AB903FB07F7012E13
S31502001480226A18D94FF4807111611921226A5661B4
S31502001490266A20463A46F364FFF714FF2846BDE85B
S315020014A0F08749F642452846BDE8F08749F64545A4
S315020014B02846BDE8F087002018211061E8E749F6C2
S315020014C044452846BDE8F0874FF02843C9F8041082
S315020014D0B6E71825E7E700BF000030A830B52D4B68
S315020014E086461C6A9B8CC4F3032503F00F021FFA7F
S315020014F083FC45EA0200284B00071B6812D51CF044
S31502001500080F4FEA142420D1012000FA02F2200724
S3150200151022D5032004F00704A04002FB03F3B3FB29
S31502001520F0FC03E003FA02FC2CFA05FC61452ED21C
S3150200153000230A2201E08C4211D90133013A2CFA26
S3150200154003F4F8D149F6404030BD03220CF0070CF3
S31502001550200702FA0CF2DCD40120A840DDE70125BF
S315020015609D40AD084FF48053DEF8201001E0013BA8
S31502001570E8D0CA6B9204FAD58B6C002003F4007390
S315020015802B4343F480738B64CEF80C4030BD644623
S31502001590FF25E7E700E0014068300022F0B5036A64
S315020015A00546DB6B0E4603F48143802B174683B058
S315020015B00DD0194C01E0013C09D00121084602F088
S315020015C0D5F92B6ADB6B03F48143802BF3D13146C9
S315020015D03A462846FFF776FE6B6A0193019B19028B
S315020015E013D442F210740AE0013C12D001210846DB
S315020015F002F0BCF96B6A0193019B1B0205D4019BA5
S31502001600DA07F1D5002003B0F0BD49F6474003B032
S31502001610F0BD142003B0F0BD404B4C00F8B51D469A
S31502001620036ADE6B06F4814CBCF1800F22D1837F04
S3150200163004463BB3174642680B4652692946FFF7F2
S3150200164063FE0646A0B96368227F5B690AB903FB9B
S3150200165007F7012D226A11D94FF480711161122107
S31502001660226A5561256A3A462046EB64FFF72AFE4E
S315020016703046F8BD49F642463046F8BD00201121F3
S315020016801061EFE749F644463046F8BD00222DE9DF
S31502001690F0414B680D465B6804461B681A604B684E
S315020016A0D3E90112186812689047064610B130460F
S315020016B0BDE8F08101464FF41272204603F0E8F9C4
S315020016C02978624A0029624B18BF13466560236275
S315020016D0EFF31088012787F310882B78A2F59E2254
S315020016E0A2F580629168C3F10C0307FA03F321EABB
S315020016F00303936093681E20394602F037F988F394
S315020017001088236A9E63236AC3F8C061236AC3F8FA
S31502001710C07163681B7EBB420CBF40F2053240F2C9
S315020017201D32236A1A640023AA68C4F83C22EA68B6
S31502001730C4E9903295F91A30AA7F002B7FDB120199
S3150200174003F16041D2B201F5614181F800234148BB
S31502001750414940F8234003F5C65251F8227027F456
S31502001760803741F8227051F82220BFF35F8F01279C
S315020017705A09920003F01F0302F1604202F5614228
S3150200178007FA03F3C2F88031136095F91C30002B77
S3150200179023DB95F8202003F1604C1201D2B20CF53E
S315020017A0614C8CF8002340F8234003F5C65251F8E9
S315020017B022C02CF4803C41F822C051F82220BFF30B
S315020017C05F8F5A09920003F01F039F4002F16043A4
S315020017D003F56143C3F880711F6095F91D30002B34
S315020017E026DB95F8212003F160411201D2B201F500
S315020017F0614181F80023184A40F8234003F5C65197
S3150200180052F8210020F4803042F8210052F82120BB
S31502001810BFF35F8F01215A09920003F01F0302F101
S31502001820604202F5614201FA03F3C2F880311360A5
S3150200183000230A4AA37722603046BDE8F0810849B0
S31502001840120103F00F00D2B20A5480E700242540A9
S3150200185000202540283000220060004049484453B9
S3150200186014ED00E000232DE9F04101272024026A4D
S315020018708377C2F8C031026A0E46C2F8C071026AA4
S31502001880A7499464026A86B09366026A0546C2F85C
S31502001890B031026AC2F8CC31026AC2F8E031FFF70F
S315020018A01DFE044618B1204606B0BDE8F0814CF292
S315020018B0E0022B6A38461A654FF47A7102F056F83E
S315020018C0224621462846FFF769FE04460028EAD149
S315020018D04FF4D57208212846FFF760FE1428044605
S315020018E0E1D049F647432A6A9842926900F0B980E4
S315020018F0B2F5D57F00F0B5802B7AFF2B00F0078179
S31502001900002202212846FFF749FE04460028CAD1D2
S315020019106B6803211F78284602373F043A46FFF7D1
S315020019203DFE04460028BED12A6A2B7A92690BB183
S31502001930170C3F043A4609212846FFF72FFE0446B4
S315020019400028B0D12B6A297A9A6901921A6A029200
S315020019509A6A03921B6B04939DF812309B0900F05E
S31502001960A680002940F0C98040F6FF749DF80C302D
S31502001970BDF80A0003F003039B0243EA9013BDF885
S3150200198008209DF80D00A342C2F3C21200F00F0018
S3150200199000F01E8102320133934001228240520A34
S315020019A002FB03F32B6101233A4607212846AB616A
S315020019B0FFF7F4FD044600287FF475AF039B580237
S315020019C000F1B48057492846FFF788FD04460028EF
S315020019D07FF469AF6B68102128465A69FFF7DEFD6E
S315020019E0044600287FF45FAF6B683A4637212846E3
S315020019F05F78FFF7D3FD044600287FF454AF4621F3
S31502001A002846C7F34102FFF7C9FD044600287FF4C2
S31502001A104AAF082F00F0DE80A7F10101B1FA81F189
S31502001A204909890044F2E0032A6A43EA413313650D
S31502001A306B685A7E32B12A6A926BC2F3C01282F086
S31502001A4001026A725B696B612EB105F108070FCF5D
S31502001A500FC63B68336001232046AB7706B0BDE86C
S31502001A60F08140F60677DFF8C08002E0013F3FF4DE
S31502001A7043AF002237212846FFF790FD044600288F
S31502001A807FF411AF424669212846FFF787FD0446D7
S31502001A9000287FF408AF2B6A9B69002B4FEA13627A
S31502001AA0E4DA0123C2F380122A772B7228E7012097
S31502001AB09DF80C30BDF80A20BDF8084003F0030378
S31502001AC09B0243EA9213C4F3C21402345A1CA24084
S31502001AD09DF80D4004F00F04A040400A00FB02F2FC
S31502001AE02A61B9B19DF808309DF8072003F03F033B
S31502001AF05B0043EAD213013356E7012B7FF453AF5F
S31502001B00029BC3F3152301339B022B614BE749F674
S31502001B104044C8E640F6FF729342E3D12961E1E709
S31502001B20801A060040787D010080FF404022012194
S31502001B30284605F13C03FFF7E7FB00287FF442AF96
S31502001B4040234FF4F94E4FF6F17C2A6A48F2FF041D
S31502001B5010612A6A0621D3642B6A98632B6AD863BA
S31502001B606862286A036C23F0010343F004030364EA
S31502001B702B6AC3F844E02A6A936C43F44073936475
S31502001B802B6AC3F808C02B6ADC602B6A19606B6A81
S31502001B900093009B19023FF515AF0F4C0CE0013C78
S31502001BA03FF410AF0121084601F0E0FE6B6A009394
S31502001BB0009B1B023FF506AF009B5A07EFD595F82F
S31502001BC04C3003F00F030F2B3FF4FCAE0349FAE649
S31502001BD02961E8E6012125E7A086010080F0FA02E4
S31502001BE070B5D0E90C129142044690F8283084B0C0
S31502001BF012D0012B31D0022BE56AA66B39D0D4E97B
S31502001C000C230133354493426363E56208BF94F8BB
S31502001C10283001D004B070BD012BFBD10025C4E9E8
S31502001C200C556368E56284F82850A5635B689A6878
S31502001C301868136998472023226A2046C2F8B051D1
S31502001C40D4F8442201A9CDF806500392ADF8043027
S31502001C50ADF80A50FFF792FBDCE7826B04F13C0118
S31502001C60C06A02F090FF94F82830E56A022BA66B50
S31502001C70C5D13246294604F13C0002F084FFBEE794
S31502001C80F0B585B0EFF3038300224949103B5EB2FB
S31502001C9051F82640CDE90122236A0392196948F2D6
S31502001CA07F3062F300011961226A936BD56B03F0F0
S31502001CB00503D94305409163E943226AD80743EAFB
S31502001CC00545D16312D50821226AADF804101169BF
S31502001CD0C9054CBF916A916902911168262957D0AC
S31502001CE0116C21F0040141F001011164314F2F40C2
S31502001CF0002F31D15B0715D4636AA27F2B4363623F
S31502001D001AB1BDF80430002B4DD12B4A06F5C65345
S31502001D1052F8231021F4803142F8231052F823306E
S31502001D2005B0F0BD94F82830012BE5D0C4E90C7754
S31502001D306368E76284F82870A7635B689A68186824
S31502001D4013699847236AC3F8B071BDF8043043F0AB
S31502001D502003ADF80430CFE700270121226ABDF83F
S31502001D600430116143F04003C4E90C77ADF8043046
S31502001D706368E76284F82870A7635B6845F4000528
S31502001D809A68186813699847236AC3F8B071B3E76B
S31502001D90D26B02F48142802A0CBF88224FF48472ED
S31502001DA0ADF80420A2E7204601A9FFF7E7FAACE75F
S31502001DB02830002200007F8000600040002230B5FB
S31502001DC085B0CDE901220392EFF303831649103B56
S31502001DD05CB251F82400056AAB6B13F4847F03D01E
S31502001DE082770122ADF8042013F4047F05D0BDF8F2
S31502001DF0042042F00202ADF8042003F44673DB43EA
S31502001E00AB63D0F8443201A90393FFF7B7FA074A46
S31502001E1004F5C65352F8231021F4803142F82310F8
S31502001E2052F8233005B030BD283000220060004051
S31502001E3003460020C3E90612704700BF844610B469
S31502001E40406A836823F440138360DCF82440A36C61
S31502001E505800FCD5A36823F01003A360DCF82440E5
S31502001E60237FC3F30010DB06FAD4CCE90412A3687D
S31502001E7043F01013A3605DF8044B704784460020BC
S31502001E80CCE90B32CCF82810704700BF4FF0FF3375
S31502001E900020C1E9003370478B0784461DD5426A8C
S31502001EA0936823F440139360426A936C5800FCD5FE
S31502001EB0936823F010039360DCF82400037FC3F3D6
S31502001EC00012DB06FAD41046CCF81420CB0703D551
S31502001ED000231846CCF81C3070470620F6E700BFF0
S31502001EE00346002210B4DC6910460C60DA615DF824
S31502001EF0044B70470620704730B40124164D53092F
S31502001F0002F01F0C203304FA0CF445F82340BFF309
S31502001F104F8FBFF36F8F114B02F5C65C53F82C40FF
S31502001F2024F4803443F82C4053F82C300901002A5B
S31502001F30C9B207DB0A4B154485F8001343F82200A1
S31502001F4030BC7047074B02F00F0423441976044B4A
S31502001F5043F8220030BC704700E100E00060004018
S31502001F6028300022FCEC00E0F0B5C46A85B00546D4
S31502001F700F4694466E46B4B194E80F0086E80F0009
S31502001F802B6A20461B78A760236084F804C02B6B5B
S31502001F90E360AB6A9847EC6A1CB196E80F0084E8E6
S31502001FA00F0005B0F0BD3446EAE700BFF8B5394B7D
S31502001FB042689A426BD10446426A936823F44013FC
S31502001FC09360426A936823F010039360426A137F18
S31502001FD0C3F30015DB06FAD40121236A2E4A93F9CC
S31502001FE00730580903F01F03203001FA03F342F8C1
S31502001FF02030BFF34F8FBFF36F8F236A93F90930F7
S31502002000580903F01F0301FA03F3203042F8203087
S31502002010BFF34F8FBFF36F8F606A836823F48033F9
S315020020208360236A93F90530580903F01F0301FA06
S3150200203003F3203042F82030BFF34F8FBFF36F8F88
S31502002040236A93F90B30580903F01F0301FA03F3CD
S31502002050203042F82030BFF34F8FBFF36F8FEFF37C
S31502002060108681F310884FF00043276A0B4A97F8CF
S3150200207000C0506823FA0CF30343536053681E20D2
S3150200208001F074FC86F3108865602846F8BD0720C7
S31502002090F8BD00BF4249435300E100E00030204052
S315020020A0002370B5026AD56983606B7C03B970BD83
S315020020B0184B044693F8543003F00F03072B24D829
S315020020C0DFE803F0040404211F191B1D01269E40AC
S315020020D0104B93F8550000F00F0001F0DFFBB0FB48
S315020020E0F6F00D4B1A686B7C02FB03F3B3FBF0F3BD
S315020020F00133A36070BD0326EAE70526E8E70A2650
S31502002100E6E70826E4E70626E2E71026083B9E40B5
S31502002110DEE700BF00E0014068300022F8B5002784
S3150200212004460E46416A8D6825F4441222F01102D5
S315020021308A600761FFF7B4FF636A326825F44015C7
S315020021401A61636A38469D60F8BD00BF0620704773
S3150200215000222DE9F04101270B78027003F5800376
S3150200216003F556531B02436201624B690D468362B5
S315020021708B690446C0E90B238378CE6967F30103B2
S3150200218083704B78934214BF3A460222837862F3F5
S315020021900103837091F90B20897AFFF7ADFE95F959
S315020021A005202979FFF7A8FE95F90720A979FFF7F7
S315020021B0A3FE95F90920297AFFF79EFEEFF3108810
S315020021C087F310884FF000412A787B4BD1405A683A
S315020021D022EA01025A605B681E20394601F0C6FBFC
S315020021E088F310884FF48062636A9A606B78E978A4
S315020021F0EA691B02890301F4804103F440730B432D
S3150200220011785068090601F040710B435178C903F1
S3150200221089B20B43517B490501F400110B43616AF4
S3150200222043F480534B611378991EB94240F2BD8044
S315020022300368616A0B61117BAB7801F0030141F01F
S31502002240300133B1022B14BF4FF440734FF4807345
S315020022501943937800201B0703F080530B43616AEE
S31502002260CB600123616A886129788B40C3F3090335
S3150200227013B1636A514959620025937BD17B127C63
S3150200228001F01F0103F0010302F01F0243EA0123DA
S31502002290616A43EA02430B632046C4E90455C4E972
S315020022A00655FFF7FDFE7089626A4549A08191666F
S315020022B0226A444B92F9052002F5C65153F82100D1
S315020022C065F3104043F8210053F82110BFF35F8FE6
S315020022D0012102F01F005209920002F1604202F54A
S315020022E0614201FA00F0C2F880011060226A92F996
S315020022F00B2002F5C65053F8206065F3104643F8EA
S31502002300206053F82000BFF35F8F02F01F005209CE
S31502002310920002F1604201FA00F002F56142C2F84F
S3150200232080011060226A92F9072002F5C65053F81E
S31502002330206065F3104643F8206053F82000BFF38F
S315020023405F8F02F01F005209920002F1604201FA09
S3150200235000F002F56142C2F880011060226A92F929
S31502002360092002F5C65053F8206065F3104643F87B
S31502002370206053F82030BFF35F8F53099B0002F0B1
S315020023801F0203F16043914003F56143C3F88011D4
S3150200239019600D4A636A9A60626A137FDB07FCD58D
S315020023A00A4B00206360BDE8F0810949022B094B04
S315020023B018BF0B463DE700BF0030204000001F1F3C
S315020023C01000079D0060004011040100424943537A
S315020023D004FF00FF24FF00FF38B5EFF30383103B31
S315020023E0254A5BB203F5C65152F8210020F480302B
S315020023F042F8210052F82120204A52F82340236A4B
S315020024001B69B3B1636903B138BD636A9D68A0688D
S3150200241025F4801545F4001518BB00219D60A36ABA
S315020024202161002BF0D02046BDE838408022FFF71C
S315020024309BBD6269636A002AE8D0A278216902F02C
S315020024400302022A11D00A781A71A278D4E9041377
S3150200245002F003029B1A1144C4E90413002BD3D1E0
S31502002460D3E701F07DFA636AD7E70A8822F4DC42F1
S3150200247092B25A60E9E700BF0060004028300022AD
S3150200248010B582B0EFF30383103B1F4A5BB203F52C
S31502002490C65152F8210020F4803042F8210052F849
S315020024A021201A4A52F82340A27802F00303022B93
S315020024B0636A0CBF19681978E3690CBFC1F3080196
S315020024C0C9B2019143B9A36AB3B10422204602B04C
S315020024D0BDE81040FFF748BD02F0030201A9A0695A
S315020024E002F051FBD4E90621A37803F003031A4450
S315020024F0C91AC4E9062109B102B010BDA36A002BAC
S31502002500FAD00122E2E700BF006000402830002234
S3150200251010B5EFF303830F4A103B5CB252F8240066
S31502002520426A936823F4401323F010039360836A8C
S315020025301BB102220021FFF717FD074A04F5C65315
S3150200254052F8231021F4803142F8231052F8233036
S3150200255010BD00BF283000220060004038B5EFF3FE
S3150200256003831D4A103B5CB252F824008378456A05
S3150200257003F00303022B0CBF29682978AA6C08BF53
S31502002580C1F30801C2F30073C2F3006C4FEA0313EE
S3150200259043EA4C13C2F3C06243EAC20C18BFC9B283
S315020025A0DB06624604D5AB6C1B0458BF4CF04002F6
S315020025B0AB6E43F0C853AB66836A0BB1FFF7D4FC2C
S315020025C0064A04F5C65352F8231021F4803142F824
S315020025D0231052F8233038BD283000220060004014
S315020025E084460020CCE90932CCF82010704700BF9F
S315020025F030B5436A85B004468C4601ADABB193E86B
S31502002600070085E8070062681846127883F804C056
S315020026101A60A26A9A60236A9847636A1BB195E8B0
S31502002620070083E8070005B030BD2B46EBE700BF85
S31502002630002238B5836804469A60436893F90220FB
S31502002640002A0EDB01213248530902F01F02203311
S3150200265001FA02F240F82320BFF34F8FBFF36F8FC8
S31502002660636893F90120002A0EDB012128485309E9
S3150200267002F01F02203301FA02F240F82320BFF3D0
S315020026804F8FBFF36F8F6368012193F9043020489F
S315020026905A0903F01F03203201FA03F340F82230ED
S315020026A0BFF34F8FBFF36F8F636893F903305A09F5
S315020026B003F01F0301FA03F3203240F82230BFF37E
S315020026C04F8FBFF36F8FEFF3108581F310884FF0B2
S315020026D0004360680F4A0078C34050680343536062
S315020026E053681E2001F042F985F3108863685A691F
S315020026F022B1936810681B6A984763681B691BB10D
S315020027009A681868136A98470020206038BD00BF8F
S3150200271000E100E00030204000222DE9F84F0B785E
S31502002720416003F5800303F556531B0283608B69F0
S315020027300D460362CB690446C0E909234B698BB196
S315020027404FF400215A68126811605A68816812684B
S315020027505160D3E9011218681268904706460028AC
S3150200276040F0FE802B6993B14FF000615A681268FF
S3150200277011605968A268096804328A60D3E90112B5
S315020027801868126890470646002840F0368141F2E2
S315020027900326626840F20323507B116A002818BFA1
S315020027A03346507A967A012806BF43F000734FF0FB
S315020027B080770027002E23F0010608BF3346D67A1B
S315020027C023F0020C002E08BF63468E7843EAC61633
S315020027D046F4403A002800F0C6804FF400284FF035
S315020027E00009EFF3108B012181F310884FF00040AE
S315020027F01378D840874B5A6822EA00025A605B680F
S315020028001E2001F0B3F88BF310880022A3689A60A9
S31502002810A268137F03F0FF01002BFAD14FF0100CD0
S3150200282001207D4B5362A3687C4A5E61A368C3F8AC
S3150200283014A0A368C3F81090A368C3F80CC0A368D9
S31502002840C3F81880A3689A66A3681867A3689F608E
S3150200285095F90130002B80F29D80714E95F9023078
S31502002860002B25DBAA7903F160411201D2B201F5F0
S31502002870614181F800236B4A46F8234003F5C651AD
S3150200288052F8210020F4803042F8210052F821202B
S31502002890BFF35F8F01215A09920003F01F0302F171
S315020028A0604202F5614201FA03F3C2F88031136015
S315020028B0EB7995F903201B01002ADBB2C0F298805E
S315020028C002F1604101F5614181F80033554B46F84A
S315020028D0224002F5C65153F8210020F4803043F815
S315020028E0210053F82130BFF35F8F012153099B006A
S315020028F002F01F0203F1604303F5614301FA02F29B
S31502002900C3F880211A6095F904202B7A002A67DB26
S315020029101B0102F16041DBB201F5614181F800332E
S31502002920404B46F8224002F5C65153F8210020F4E6
S31502002930803043F8210053F82130BFF35F8F012125
S3150200294053099B0002F01F0203F1604303F5614342
S3150200295001FA02F2C3F880211A600026324B236084
S315020029603046BDE8F88F4B7891F8009003F00300EB
S315020029704FEA0929C97849EA0059C3F3800349EAAB
S315020029800319002943D001F1FF384FEA086848F4D9
S31502002990102826E76A7903F160471201204ED2B267
S315020029A007F5614787F800231E4A46F8234003F5D8
S315020029B0C65752F827C061F3104C42F827C052F8A6
S315020029C02720BFF35F8F03F01F025B099B0003F111
S315020029D06043904003F56143C3F8800118603DE708
S315020029E0124902F00F001B01DBB201440B7697E796
S315020029F00F4902F00F000B5468E76B69002BAFD04A
S31502002A009A681868136A98473046BDE8F88F4FF4FB
S31502002A100028E6E60030204000809F1F1000079D38
S31502002A20283000220060004053494353FCEC00E08A
S31502002A3014ED00E0F8B51D4683689B6813F0110398
S31502002A4043D11646C0E90533C0E903164268C5619B
S31502002A5013690446D3B145611369A8B25A6812686C
S31502002A60D0815A681268002931D04FF0020CD07812
S31502002A706CF38300D0705A6812685160D3E9011270
S31502002A801868096852689047F0B96268536953B189
S31502002A904EB1A56153693246996818688E68ABB221
S31502002AA00021B04780B92369002B4CD063681A69AC
S31502002AB0002A4BD04FF01111A26893680B43936022
S31502002AC063681A6962B10020F8BD0820F8BDD078A3
S31502002AD02E4F61F38300D0705A6812685760CDE7B3
S31502002AE05A69002AEFD12269002AECD0012193F912
S31502002AF0013027485A0903F01F03203201FA03F373
S31502002B0040F82230BFF34F8FBFF36F8F6369E269DC
S31502002B10934209D2D4E9021282B3D35C63F0FF0373
S31502002B204B606369013363616268517A012914D08B
S31502002B3092F90130012203F01F0015495B09824018
S31502002B4041F82320BFE74FF01011B5E75B69114941
S31502002B50002B18BF4FF01111AEE7E1690129E7D941
S31502002B609942E5D9D4E9022161B1CB5C63F0FF0356
S31502002B7053606369626801336361D9E76FF0FF03EB
S31502002B804B60CEE76FF0FF035360F2E7C82F0022D7
S31502002B9000E100E0110001008C4613460021624666
S31502002BA0FFF748BF13460022FFF744BFFFF742BFB5
S31502002BB0EFF30383103B184A5BB203F5C65152F892
S31502002BC0210020F4803042F8210052F82120134AD5
S31502002BD052F823305A69D9698A420AD2D3E90201E4
S31502002BE0A9B18A5C62F0FF0242605A69D969013270
S31502002BF05A618A4200D070471A69002AFBD19A6844
S31502002C00936823F4801343F40013936070476FF0C4
S31502002C10FF024260E9E700BF006000402830002260
S31502002C2010B4EFF30383103B1C4A5BB203F5C651A3
S31502002C3052F8210020F4803042F8210052F8212077
S31502002C40174A52F823305969DA6991420AD2D3E90E
S31502002C500202F2B1525C62F0FF0242605969DA691D
S31502002C60013159619969914207D298681A690068D7
S31502002C704C1C9C615054D3E90612914206D19A68C3
S31502002C80936823F4881343F4001393605DF8044BAE
S31502002C9070476FF0FF024260E0E700BF006000404D
S31502002CA02830002210B5EFF303830D4A103B5CB2C5
S31502002CB052F8240001218268936823F4401323F01A
S31502002CC011039360FFF794FC064A04F5C65352F8C3
S31502002CD0231021F4803142F8231052F8233010BD1C
S31502002CE0283000220060004038B5EFF303834FF02E
S31502002CF080750D4A103B5CB252F8240004218268AA
S31502002D00936823F44413936083689D66FFF770FC0F
S31502002D10064A04F5C65352F8231021F4803142F8CC
S31502002D20231052F8233038BD2830002200600040BC
S31502002D300022034610461A60704700BF10B40B0A01
S31502002D40064C1B0153FA81F154F821300020C3F3DB
S31502002D5040035DF8044B1370704700BF0008404003
S31502002D60090A490101F1804101F580014B68002001
S31502002D7013807047090A490123EA020C01F18041D6
S31502002D801A4001F5800142EA0C4200208A6070472F
S31502002D90002001238242CAB203FA02F39AB24FEA30
S31502002DA0034308BF1A460B0A5B0103F1804303F58E
S31502002DB080039A60704700BF10B4090A490101F105
S31502002DC0804101F580010C6802EA030C4CEA040C0E
S31502002DD062EA030202EA0C020A6000205DF8044B72
S31502002DE0704700BF090A490101F1804101F58001DE
S31502002DF04B680020C3F30F4313807047012310B4BE
S31502002E004FEA112C4FEA4C1C0CF1804C0CF5800C4D
S31502002E10DCF80440C9B28B4099B203EA14435B1A48
S31502002E20B3FA83F35B0900205DF8044B1370704715
S31502002E30090A490123EA020C01F180411A4001F50F
S31502002E40800142EA0C420020CA607047012010B499
S31502002E500B0A5B0103F1804303F58003C9B2DC6808
S31502002E6000FA01F1012A4FEA01400DBF84438C4367
S31502002E7004430C43DC6000205DF8044B704700BF3E
S31502002E802DE9F84F0388DBB14FF0000A80464FF078
S31502002E900109DFF8D4B00024314D4FEACA07D8F849
S31502002EA0043035F8022BD919898891420AD00134A7
S31502002EB0032CF4D1B8F800300AF1010A5345EAD8D6
S31502002EC0BDE8F88FDB5909FA04F603F0B853B3F1FB
S31502002ED0807F244BF6B293F84C2C12D0324230D17A
S31502002EE004F120021BF81230DB09E0D01BF8123085
S31502002EF0012123F08003C8200BF8123000F036FDC2
S31502002F00D5E7324210D004F120021BF81230DB0959
S31502002F10CDD11BF81230012143F08003C8200BF8F3
S31502002F20123000F023FDC2E7012000F0CBFD0D4B6D
S31502002F30012093F84C2C324383F84C2C00F092FD7E
S31502002F40E1E7012000F0BEFD064B012093F84C2C70
S31502002F5022EA060283F84C2C00F084FDC0E700BF8B
S31502002F607C48020200E0014000202040F8B50646F7
S31502002F70FFF786FFEFF31082012383F31088234FB6
S31502002F803B681BB9402022490B7508753B68013323
S31502002F903B6082F31088338800211BB31D4D08E085
S31502002FA01B01134445F82340328801318BB29A4201
S31502002FB018D9736853F8314003EBC1029288E003D3
S31502002FC04FEA1223D2B2EBD502EB031055F820E0FA
S31502002FD024F4803C2EF4803E45F820E01B0145F89F
S31502002FE020C0DEE7EFF31082012383F310883B68EB
S31502002FF013B13B68013B3B603B681BB98020044927
S315020030000B75087582F31088F8BD00BF24300022C4
S31502003010000D40400008404008B5034B03600846D7
S31502003020FFF7A4FF002008BD54524F5008B50846CA
S31502003030FFF79CFF002008BD70B5012686B001ABE4
S3150200304003A80C4615460493ADF80C60ADF80810BB
S315020030500192FFF715FFEFF3108186F310881D4BDF
S315020030601A681AB91C480275402202751A6801329A
S315020030701A6081F31088E9034FEA1422E4B219D4E4
S31502003080110116480A1940F82250EFF31082012165
S3150200309081F31088196811B11968013919601B6822
S315020030A01BB980200C490B75087582F31088002025
S315020030B006B070BD0948110104EB021250F82260F5
S315020030C026F4803640F8226025F4803640F82260E5
S315020030D0D7E700BF24300022000D404000084040E0
S315020030E0034609019B6841F00101C9B200205977E4
S315020030F0704700BF0023826818465377704700BFA7
S31502003100034601229B6800201A77704730B44FF4B9
S3150200311080654FF4803403468D600C609C684FF6E0
S31502003120FF72B4F810C0E4681CF4404F18BF2A4678
S315020031304C609B68002030BC9B689BB2C1E90223AD
S31502003140704700BF0620704703460020D9605A61C7
S31502003150704700BF30B400244268134D52680346DC
S31502003160117801F5C55145F8214081680C77D1687F
S31502003170A9B14FF0010C92F901100C4D480901F06A
S315020031801F0120300CFA01F145F82010BFF34F8FD2
S31502003190BFF36F8F064992F9012041F822400020C1
S315020031A0186030BC704700BF0060004000E100E0DC
S315020031B0283000222DE9F04700244368774A5D68EB
S315020031C02B7803F5C55342F8234083681C772B7886
S315020031D06E8903F5C55342F8236083685C7791F8DC
S315020031E003C091F80290E046C9F38102CCF3810351
S315020031F09201CE8942EA833208F0C0074FEA9C1355
S315020032009B03CCF3011C802FB6B243EA0C2308D0F1
S31502003210402F06D0C02F00F0B880A24643F40053D8
S315020032200AE08C8906EB0646C9F3001C26F0FC264A
S315020032301FFA84FA43EA0C33B5F80AC0D0F80CE058
S31502003240BCF1000F18BF43F00103BEF1000F3DD0E1
S3150200325019F0200F5ED14FF0100E95F802C095F9C5
S3150200326001704FEA0C1C002F5FFA8CFCC0F28580BD
S3150200327007F1604808F5614888F800C3DFF820C105
S3150200328007F5C6584CF82700DFF810C15CF82890FD
S3150200329029F480394CF828905CF828C0BFF35F8F78
S315020032A04FF001084FEA571C4FEA8C0C07F01F0734
S315020032B00CF1604C0CF5614C08FA07F7CCF88071FA
S315020032C0CCF8007091F8038008F0C007C02F28D010
S315020032D04FF0000CE046876892B2C7F828808768EC
S315020032E09BB2C7F82CC08768BA82826813824A6882
S315020032F083681A608A6883685A6083689E608368F6
S31502003300C3F80CA083686A689A61836883F813E03D
S31502003310BDE8F087C02F14BF4FF01C0E4FF0100E01
S315020033209BE7B1F80CC008F00C08B8F1040F1FFABD
S315020033308CFC08BFE04691F80290CF8909F00C098F
S3150200334018BFB5F80880BFB208BF42F40052B9F1FF
S31502003350040F18BF1CFB07F7846818BF1FFA87FC07
S315020033604F6808BF42F0200227628F68846808EB24
S3150200337008480CEB0C4C6762ADE7DFF8288007F0D3
S315020033800F09C84488F818C078E78C8906EB064608
S3150200339026F0FC261FFA84FA4EE700BF00600040C2
S315020033A028300022FCEC00E010B50446FFF702FFCD
S315020033B00122A36800201A7710BD00BF2DE9F04153
S315020033C000264A68416013780D4603F1807303F5BF
S315020033D020739B018360D3680446C3605369C0E9C6
S315020033E00463EFF31088012787F310880B4B1A68E2
S315020033F022F480021A601B681E20394600F0B6FAD3
S3150200340088F31088064B20461F701E742968FFF742
S31502003410D1FE044B30462360BDE8F08100302040E7
S3150200342000A8004043414D440346002230B4596887
S31502003430094D4C681046217801F5C55145F8212001
S3150200344099680A772178648901F5C55145F82140C2
S315020034509B685A7730BC70470060004030B4002445
S3150200346082B0019100924268144D51680A7802F5C1
S31502003470C55245F82240826814770A78498902F5CE
S31502003480C55245F8221082685477019A12B1019901
S3150200349082681160009A12B182680099516082684E
S315020034A0118A11F4404F14BFD360936083680122DE
S315020034B000201A7702B030BC704700BF006000409F
S315020034C010B582B0EFF30383103B0D4A5BB203F5EE
S315020034D0C65152F8210020F4803042F8210052F8F9
S315020034E02120084A01A852F823406269E368019242
S315020034F09847A368DA680AB101221A7702B010BDAA
S315020035000060004028300022F0B5234B8BB05D6F7F
S31502003510EA435A67EFF30383103B204A5BB203F593
S31502003520C65152F8210020F4803042F8210052F8A8
S3150200353021201B4A52F8234063694BB300212269BA
S3150200354002912A40E0690092A769A2680191CDE939
S315020035500320FFB1BC463E46BCE80F00EE4605AD71
S315020035600FC5DCF800302B60BEE80F000FC6DEF890
S315020035700030CCF80030636938469847A4693CB1FC
S315020035800DF1140CBCE80F000FC4DCF800502560E6
S315020035900BB0F0BD6F46EFE700803440006000409C
S315020035A0283000221D4A92F82630928CDBB202F0B5
S315020035B00F02A2F1080103292BD8DFE801F0201639
S315020035C00C021749174A51F82330A2FB03231B09A1
S315020035D0154A136070471249124A51F82330A2FB6A
S315020035E00323114ADB08136070470D490D4A51F84F
S315020035F02330A2FB03230C4A9B0813607047084939
S31502003600084A51F82330A2FB0323074A5B081360DA
S315020036107047034951F82330D340D9E700E001400F
S3150200362020260022ABAAAAAA68300022704700BF51
S315020036304AF203529FED844B9FED855B38B58A486B
S315020036408A4B8B498B4CC3E908018B499FED826BF0
S315020036509FED837B9962A4F8FA23A3EC045F83EDC2
S31502003660007FFFF79FFF09230A2284F8502A84F875
S31502003670A23094F8003C23B994F8013C980700F074
S31502003680DC807C4C94F8003C002B00F0CB800022BE
S31502003690784B83F8012C83F8002C0023754A82F8B4
S315020036A0323092F83C301907FBD540F22344002011
S315020036B04FF6021140F25143704DC2F8C850A2F8BB
S315020036C04E4082F84A00C2F8AC10A2F84C30BFF362
S315020036D04F8FBFF36F8F6A4B596921F400315961DD
S315020036E0C3F85002BFF34F8FBFF36F8F65490B6864
S315020036F023F440530B60BFF34F8FBFF36F8F01204C
S31502003700137D01F1C04160F3020313750B7DDA06E6
S31502003710FCD45C4A136843F440531360BFF34F8FE3
S31502003720BFF36F8FA2F57342536913F4003311D1BD
S31502003730BFF34F8FBFF36F8FC2F85032BFF34F8F75
S31502003740BFF36F8F536943F400335361BFF34F8F57
S31502003750BFF36F8F0023474A82F82A3092F83C3033
S315020037609B06FBD50022484B1A701A781A781A78EB
S315020037705A68FA2A04D0454959605A68FA2AFBD18E
S31502003780414B9A687D2A04D0414999609A687D2AFC
S31502003790FBD1052242F22011364B3E48186299842B
S315020037A083F82620FFF7FEFE01211E2000F0DEF838
S315020037B0354A5368C3F30903642B84BF012313708C
S315020037C0FFF7F0FE4AF20152334B1A80BFF35F8FC6
S315020037D001211972BFF35F8F4FF42540254A1880E5
S315020037E082F8531092F8553043F0400382F8553070
S315020037F092F85530DB09FBD0CA23022082F8540026
S3150200380082F8553092F855301A4903F0BF0382F810
S31502003810553091F85530DB09FBD14FF42543A1F819
S31502003820FA3338BD0121C82084F8001C00F09EF846
S3150200383094F8003C012BFBD129E74FF47A70FFF78D
S31502003840F5FE2AE7AFF30080006CDC0200127A0074
S315020038500080000000366E010080000000CA9A3B1C
S315020038600046C3235543DE130084D71720260022C1
S315020038700008AF2F00E0014000389C1C022B01001B
S3150200388000ED00E000E001E000C01340FA00001E77
S315020038907D0000E13234233200200040014B53F810
S315020038A0200070472026002238B50025284C012129
S315020038B0C82084F8285000F059F884F8245094F867
S315020038C02430002BFBD194F82430214943F0020323
S315020038D084F8243091F82430C3F340009B07F9D4CE
S315020038E01B4A81F8220092F8223003F0FF00002BD7
S315020038F0F9D192F84030164960F3C71382F8403086
S3150200390091F84030DB09FBD191F84200104A63F38B
S31502003910C71081F8420092F84230DB09FBD192F8D7
S3150200392044000B4963F3C71082F8440091F844300F
S31502003930C3F3C014DB09F9D1012000F0C3F8054B2B
S31502003940012083F84C4CBDE8384000F08BB800BF2C
S315020039500020204000E00140704700BF00BEFEE7A5
S31502003960A0F101000028FBD1704700BF1E4B1F4A81
S315020039701B6800FB01F1934213D302F1854202F563
S31502003980071203F5742302F6834203F23F23A2FBD6
S3150200399003239B0CA3FB01314FF0FF30E1B1FFF78C
S315020039A0DFBF4FF47A7210B4114C4FF0FF30B4FB04
S315020039B0F3F3A1FB02C434B9BCFBF3F080B15DF8AA
S315020039C0044BFFF7CDBFB1FBF3F1A1FB0212002AB4
S315020039D0F5D1084620B1F2E71846002BDFD1704731
S315020039E05DF8044B704700BF6830002200127A006F
S315020039F000CA9A3BF8B5002401260D4B0D4FD3F8A9
S31502003A000021D3F82051154006FA04F32B4204D0C4
S31502003A1057F82430E0B203B198470134152CF3D19C
S31502003A20034AC2F81051D2F820312B42FBD1F8BD1D
S31502003A3000C00040D02F002200220C2310B40748F9
S31502003A40074C30F8021B02F5C65C013209B144F894
S31502003A502C10013BF5D15DF8044B70472048020259
S31502003A6000600040EFF31081012383F31088124BAC
S31502003A7033F8102092B22AB133F81020013A92B2EA
S31502003A8023F8102033F810309BB293B910B40B4AC6
S31502003A900B4CB2F8FA3334F810009BB243F42543C8
S31502003AA023EA0003A2F8FA3381F310885DF8044B87
S31502003AB0704781F3108870475830002200E00140B9
S31502003AC0144B020230B4EFF31081012383F3108802
S31502003AD00E4A32F810309BB26BB90D4C0D4DB4F84C
S31502003AE0FA3335F810C09BB243EA0C0343F425437C
S31502003AF09BB2A4F8FA3332F8103001339BB222F8A3
S31502003B00103081F3108830BC704700BF5830002255
S31502003B1000E00140144B020208B509490A688318FD
S31502003B20B3F5005F03D807480B60104408BD01F0E7
S31502003B3013F80C2203461A604FF0FF3008BD00BF8F
S31502003B40643000222002002200BE704708B500F051
S31502003B5037F8FDF799FBFEE7F8B5174F05463E68BD
S31502003B60A6B17C6806EB460604EB860602E00C3438
S31502003B70B4420BD0637AAB42F9D1D4E900020021F8
S31502003B80121A0C3400F084FFB442F3D1BE6896B127
S31502003B90FC6804EB061602E01034A6420BD0637BE7
S31502003BA0AB42F9D1D4E90002A168121A103400F02E
S31502003BB0EAFFA642F3D1F8BDE44802020000000083
S31502003BC0F8B5844A844B5A61BFF34F8FBFF36F8FA8
S31502003BD01B6803F47002B2F5801F00F0D48013F460
S31502003BE0600F00F0BC807D4A136823F00403136063
S31502003BF0BFF34F8FBFF36F8F4FF47002784B764C43
S31502003C000020C4F88820A360FDF72EFB0025FFF7ED
S31502003C100FFD4AF202514FF42542724B0120A3F8DE
S31502003C20FA1383F8B05AA3F8FA23FDF71DFB6E4B7D
S31502003C3083F30A88694B1A68910704D5A268B2F120
S31502003C40007F00F0A4800020FFF786FFFFF7AAFCA2
S31502003C50FFF72AFE0320FFF735FF00234FF00E0E73
S31502003C601C464EF001E0614903F10C0221F82240A4
S31502003C7001330FF007C80320FFF7F4FE0320FFF716
S31502003C8021FF5B4B03205C609C60DC601C61554C31
S31502003C90FFF7E8FED4F8D8339A0747D5D4F8D833D5
S31502003CA0504CD4F8D8335B0727D5D4F8D833022042
S31502003CB0FDF7DAFA0120FFF74FFFBFF34F8FBFF38D
S31502003CC06F8F0024444BC3F85042BFF34F8FBFF3AC
S31502003CD06F8F484B484D5B1BA3424FEAA30605DD97
S31502003CE055F8043B01349847A642F9DCFFF7A4FED7
S31502003CF0BDE8F8400020FFF72FBE94F81431002BE0
S31502003D00D5D00120FFF7DEFE94F8143103F0C0038C
S31502003D10802BF9D10023334A84F8143192F81431F6
S31502003D203F2BFBD80120FFF79DFEC0E794F8103128
S31502003D30002BB5D00120FFF7C5FE94F8103103F031
S31502003D40C003802BF9D10023264A84F8103192F859
S31502003D5010313F2BFBD80120FFF784FEA0E71F4A54
S31502003D60136843F004031360BFF34F8FBFF36F8FE3
S31502003D704FF0E022936843F480339360BFF34F8F92
S31502003D80BFF36F8F38E718077FF42DAF27E70121BE
S31502003D901A695869C2F3C302093201FA02F300260C
S31502003DA00027DB0843F005C0E5E802670FF005C00F
S31502003DB0C0F3C303093301FA03F34FF00052DB08E1
S31502003DC043F007C0AFF30080E2E802670FF005C0D8
S31502003DD039E700BF01020E0000ED00E000E001E05D
S31502003DE00000000200E0014020220022000D4040B7
S31502003DF000402040B84E0202B44E0202F0B52DED4C
S31502003E00028BB0EE408B85B017460C460D9D18EE20
S31502003E10902A0C9E25F02005002AB6BF2D220022EC
S31502003E20B1EE408B462D1A7004D0452D00D10134D7
S31502003E30022100E0032103ABB0EE480B22460193B8
S31502003E4002AB0093334600F043FF472D14D1FB0724
S31502003E500AD50219B5EE408B3021F1EE10FA08BFF1
S31502003E600392039B934219D3039B0E9A1B1A136068
S31502003E7005B0BDEC028BF0BD462D00EB0402E9D184
S31502003E800378302B07D1B5EE408BF1EE10FA1CBF4A
S31502003E90C4F10104346033681A44DBE75C1C039402
S31502003EA01970DEE7F7B500290270BABF49422D2321
S31502003EB02B230929437028DD0DF107030A271D4626
S31502003EC01A46013BB1FBF7F607FB1614303402F82B
S31502003ED0014C0C463146632CF2DC3031941E03F859
S31502003EE0011C411C2346AB420AD30DF109039B1A5E
S31502003EF0AC4288BF002302330344181A03B0F0BD54
S31502003F0013F8016B01F8016FEDE73023303183704E
S31502003F10031DC170F1E700002DE9F04F8DB00C468C
S31502003F2016461F46DDF85880054600F0CBFDD0F850
S31502003F3000B0584600F034FE002394F818900A9315
S31502003F40D8F8003022680733059023F0070303F1FF
S31502003F500801C8F8001093ED000B9FED976BB0EEC9
S31502003F60C07B84ED120BB4EE467BF1EE10FA24DD33
S31502003F70B5EEC00BF1EE10FA02D52D2384F84330CC
S31502003F808F49904BB9F1470F8CBF8846984622F06D
S31502003F90040203234FF0000A2260236133460BAA70
S31502003FA021462846009700F0D1F9013040F0898079
S31502003FB04FF0FF300DB0BDE8F08FB4EE400BF1EEDE
S31502003FC010FA09D710EE903A7F49002BBCBF2D2379
S31502003FD084F843307D4BD5E7636809F0DF0A591C44
S31502003FE039D10623636042F48062002328462260A8
S31502003FF003930AABCDE9019309AB00930DF12303B9
S315020040006168FFF7FBFEBAF1470F8046099929D18D
S31502004010C81C02DB6368994241DDA9F102095FFA15
S3150200402089F901394A4604F150000991FFF73AFF2E
S315020040300A9A82461318012A236102DC2268D207F1
S3150200404001D5013323619DF82330002BA6D02D2301
S3150200405084F84330A2E7BAF1470FC4D1002BC2D18C
S315020040600123BFE7B9F1650FDBD9B9F1660F18D1A4
S31502004070002963680BDD216113B92268D00702D5D6
S3150200408001330B4423614FF0000AA165DBE713B944
S315020040902268D20701D50233F4E70123F2E74FF093
S315020040A067090A9B994205DB23682161D807EAD58D
S315020040B04B1CE7E70029D4BFC1F1020201221344D7
S315020040C0E0E723685A0507D4236942463146284663
S315020040D0B84701302AD16BE7B9F1650F40F2E080AB
S315020040E094ED127BB5EE407BF1EE10FA33D101234B
S315020040F0374A31462846B84701303FF459AFDDE921
S315020041000938434502DB2368D8070FD5059B5A4673
S3150200411031462846B84701303FF44AAF4FF000090E
S3150200412008F1FF3804F11A0AC84509DC23689B071F
S3150200413000F10781E0680B9B9842B8BF184639E741
S315020041400123524631462846B84701303FF430AF84
S3150200415009F10109E8E7099B002B3BDC01231C4A14
S3150200416031462846B84701303FF422AFDDE9093926
S3150200417059EA030302D12368D907D7D5059B5A46C4
S3150200418031462846B84701303FF412AF4FF0000AD5
S3150200419004F11A0B099B5B42534501DC4B4694E73B
S315020041A001235A4631462846B84701303FF400AF4C
S315020041B00AF1010AEEE700BFFFFFFFFFFFFFEF7FF5
S315020041C0224B02021E4B02022A4B0202264B02021B
S315020041D02E4B0202A36DDDF828A05345A8BF534615
S315020041E0002B994637DC002329EAE97904F11A0201
S315020041F00793A36D07990693A3EB09038B4231DC60
S31502004200099B9A453BDC2368DA0738D4099BAAEB5B
S315020042100309069BAAEB03039945A8BF9946B9F180
S31502004220000F34DC4FF0000829EAE97904F11A0B91
S31502004230099BAAEB0303A3EB090343457FF776AF7A
S3150200424001235A4631462846B84701303FF4B0AEFC
S3150200425008F10108ECE7424631462846B8470130E4
S31502004260C1D1A5E60123314628460692B847013058
S315020042703FF49EAE079B069A01330793B9E7059B67
S315020042805A4631462846B8470130BFD190E6069ACB
S315020042904B46314628464244B8470130C2D187E6EA
S315020042A0DDF82890B9F1010F01DCDB0736D50123D1
S315020042B0424631462846B84701303FF479AE059B5F
S315020042C05A4631462846B84701303FF471AE09F1E5
S315020042D0FF3994ED127BB5EE407BF1EE10FA18D061
S315020042E04B4608F1010231462846B84701300CD147
S315020042F05EE601235A4631462846B84701303FF466
S3150200430057AE08F10108C845F3DB534604F15002E3
S31502004310DCE64FF0000804F11A0BF4E701234246EB
S31502004320E1E701234A4631462846B84701303FF4C1
S315020043303FAE08F10108E3680B995B1A4345F0DCCE
S31502004340F8E64FF0000804F11909F4E72DE9F04701
S31502004350164698468A6807460B690C46DDF8209091
S315020043609342B8BF1346336091F843200AB1013332
S3150200437033602368990642BF336802333360256887
S3150200438015F0060506D104F1190AE36832689B1A8C
S31502004390AB422BDC94F843302268003B18BF012362
S315020043A0920630D404F1430241463846C8470130EA
S315020043B023D023681A3454F80A2C03F00603042B7C
S315020043C00ABF54F80E5C002533684FF0000608BF9A
S315020043D0ED1A54F8123C08BF25EAE5759342C4BFAC
S315020043E09B1AED18B5421AD1002008E00123524665
S315020043F041463846C847013003D14FF0FF30BDE889
S31502004400F0870135C1E7E1185A1C302002332244F5
S3150200441081F8430094F8451082F84310C2E701235D
S31502004420224641463846C8470130E6D00136D9E72A
S315020044302DE9FF470F7E914680460C46782F9A4615
S315020044400C9E01F1430207D8622F0AD8002F00F012
S31502004450D180582F00F0B88004F1420684F84270E9
S315020044603AE0A7F16303152BF6D801A151F823F020
S31502004470C9440002DD4400025944000259440002C4
S315020044805944000259440002DD4400025944000224
S31502004490594400025944000259440002DB45000215
S315020044A0074500029545000259440002594400029C
S315020044B0FD45000259440002074500025944000224
S315020044C0594400029D45000233681A1D1B6832607A
S315020044D004F1420684F8423001239CE033682068E6
S315020044E0191D3160060601D51D6803E04506FBD598
S315020044F0B3F90050002D03DA2D236D4284F84330C0
S3150200450058480A2311E021683368080653F8045B09
S3150200451002D4490648BFADB26F2F3360514814BF6B
S315020045200A230823002184F843106668002EA66039
S3150200453005DB21682E4321F0040121604BD016468B
S31502004540B5FBF3F103FB1157C75D06F8017D2F4654
S315020045500D46BB42F4D9082B0BD12368DF0708D5D9
S31502004560236961689942DEBF302306F8013C06F1F1
S31502004570FF36921B22614B4603AA21464046CDF8DE
S3150200458000A0FFF7E3FE01304AD14FF0FF3004B03E
S31502004590BDE8F087236843F020032360782732487A
S315020045A0236884F845701F06316851F8045B02D40B
S315020045B05F0648BFADB23160D90744BF43F020035E
S315020045C023601DB11023ADE72648E9E7236823F0EF
S315020045D020032360F6E71646BDE733682568181DF3
S315020045E0616930602E061B6801D5196002E0680613
S315020045F0FBD51980002316462361BCE733680021E8
S315020046001A1D32601E686268304600F0AEFA08B1C2
S31502004610801B606063682361002384F84330AAE745
S315020046202369324649464046D0470130ADD0236819
S315020046309B0713D4E068039B9842B8BF1846A6E7C7
S315020046400123324649464046D04701309DD00135C6
S31502004650E36803995B1AAB42F2DCEBE7002504F14F
S315020046601906F5E7304B0202414B0202002310B550
S3150200467004468360818119464366C28108228361AA
S31502004680C0E90033C0E904335C3000F001FA0D4B97
S31502004690246263620C4BA3620C4BE3620C4B2363F2
S315020046A00C4B9C4206D003F16802944202D0D033EE
S315020046B09C4205D104F15800BDE8104000F052BA00
S315020046C010BD00BFE1480002034900023B49000257
S315020046D05F4900026C300022024A0349034800F097
S315020046E069B800BF44000022FD63000254000022A4
S315020046F041680C4B994210B5044601D001F07EFE8A
S31502004700A168094B994202D0204601F077FEE16882
S31502004710064B994204D02046BDE8104001F06EBE19
S3150200472010BD00BF6C300022D43000223C31002282
S3150200473010B50B4B04210B4C0B4A20461A60002283
S31502004740FFF794FF04F1680001220921FFF78EFFAB
S3150200475004F1D00002221221BDE81040FFF786BF05
S31502004760A43100226C300022D9460002014800F032
S31502004770FAB900BFAD310022014800F0F5B900BF19
S31502004780AD31002210B50446FFF7F0FF236A1BB1D4
S31502004790BDE81040FFF7F0BF044B2362044B1B68D1
S315020047A0002BF5D1FFF7C4FFF2E700BFF146000286
S315020047B0A43100222DE9F84307468846144600260E
S315020047C0D4E90195B9F1010905D52468002CF7D180
S315020047D03046BDE8F883AB89012B07D9B5F90E300F
S315020047E0013303D029463846C04706436835E9E710
S315020047F00FB407B5064904AB086853F8042B816861
S31502004800019301F05FFC03B05DF804EB04B070475E
S3150200481050000022024B01461868826801F077BEFA
S3150200482050000022036A70B505460E4684680BB92D
S31502004830FFF7A8FF636EDB0705D4A389980502D4A8
S31502004840A06D00F090F9A389190702D52369002B00
S3150200485035D12146284600F0C5F880B34FF0FF3522
S31502004860636EDA0705D4A3899B0502D4A06D00F016
S315020048707BF9284670BD002B04DAA2699A4217DC3E
S315020048800A2915D023685A1C22601970A36816F8E3
S31502004890011F013BA3600029EDD1002B11DA22464C
S315020048A00A21284600F05FF80130D7D00A25D7E75B
S315020048B02246284600F057F80130E7D1CEE7013EFE
S315020048C0E4E723685A1C22600A221A70EEE7000007
S315020048D0024B01461868FFF7A5BF00BF5000002231
S315020048E010B50C46B1F90E1000F012F90028ABBF54
S315020048F0636DA3891B1823F48053ACBF6365A38140
S3150200490010BD2DE9F0411F468B8905460C46DB0595
S31502004910164605D502230022B1F90E1000F0E6F87C
S31502004920A3893246B4F90E10284623F48053A38194
S315020049303B46BDE8F04100F0FDB810B50C46B1F9B2
S315020049400E1000F0D3F8431CA38915BF606523F44B
S31502004950805343F48053A38118BFA38110BDB1F9DC
S315020049600E1000F0B3B8F8B50E461446054618B157
S31502004970036A0BB9FFF706FFA369A360A3891A07A7
S3150200498001D5236943B92146284600F02BF818B110
S315020049904FF0FF373846F8BD2368F6B2226937462C
S315020049A0981A6369834205DC2146284601F026FDF2
S315020049B00028EDD1A368013BA36023685A1C22603C
S315020049C01E70431C62699A4204D0A389DB07E1D5B3
S315020049D00A2EDFD12146284601F010FD0028D9D043
S315020049E0D6E7000038B5294B05460C46186818B1BB
S315020049F0036A0BB9FFF7C6FEB4F90C30190722D4C5
S31502004A00DA0607D409222A6043F040034FF0FF304A
S31502004A10A38133E0580712D5616B41B104F1440317
S31502004A20994202D0284600F0A1FE00236363A389BF
S31502004A3023F02403A3810023636023692360A389EF
S31502004A4043F00803A38123694BB9A38903F42073B6
S31502004A50B3F5007F03D02146284601F01CFDB4F9C8
S31502004A600C3013F001020AD00022A260626952429F
S31502004A70A261226942B913F08000C5D138BD9907F7
S31502004A8058BF6269A260F4E70020F7E750000022EF
S31502004A9002440346934200D1704703F8011BF9E72B
S31502004AA010B56AB10139841810F8012B11F8013FCB
S31502004AB09A4203D1A04201D0002AF5D1D01A10BDE4
S31502004AC01046FCE7004870479001002238B50023E3
S31502004AD0054D044608462B6001F0B4FD431C02D185
S31502004AE02B6803B1236038BDA831002238B50446CD
S31502004AF0064D0846114600222A601A4601F0BAFD02
S31502004B00431C02D12B6803B1236038BDA8310022B1
S31502004B1038B50446064D0846114600222A601A4652
S31502004B2001F0B0FD431C02D12B6803B1236038BDEE
S31502004B30A831002238B50446064D08461146002221
S31502004B402A601A46FCF7FEF9431C02D12B6803B110
S31502004B50236038BDA8310022014B1868704700BF98
S31502004B6050000022704770477047C9B2034602449C
S31502004B7010B59342184601D1002003E004780133B0
S31502004B808C42F6D110BD0A44431E914200D17047B1
S31502004B9010B511F8014B914203F8014FF9D110BD3E
S31502004BA0034613F8012B002AFBD1181A0138704765
S31502004BB02DE9F74F036907460C69A342C0F28380C9
S31502004BC0013C00F1140501F11408A30055F8242054
S31502004BD008EB8409009305EB8403019358F824300B
S31502004BE001339A42B2FBF3F631D34FF0000AC446C0
S31502004BF0AE46D3465CF8043B98B2E1454FEA13430E
S31502004C0006FB00A04FEA104280B206FB0323DEF841
S31502004C10002092B24FEA134AA2EB00029BB2DEF8E0
S31502004C2000005A44C3EB224392B203EB104342EA1A
S31502004C3003424FEA234B4EF8042BDBD2009BEB5880
S31502004C402BB9019B043B9D421A4630D33C61384640
S31502004C5001F002F9002826DB2946002058F8042B29
S31502004C60D1F800C01FFA82FEC1451FFA8CF34FEA43
S31502004C701242A3EB0E030344C2EB23429BB202EBA6
S31502004C801C4243EA02434FEA224041F8043BE5D282
S31502004C9055F8242005EB840322B9043B9D421A46AB
S31502004CA00BD33C610136304603B0BDE8F08F126883
S31502004CB0043B002ACAD1013CC5E71268043B002A1C
S31502004CC0EFD1013CEAE70020EEE700000000000019
S31502004CD02DE9F04FC76981462DED028B91B055EC57
S31502004CE0104B1C9E069109920C938DED020B7FB917
S31502004CF0102000F085FD0246C9F81C0020B99E4B23
S31502004D00EF219E48FEF72AFEC0E901770760C760D9
S31502004D10D9F81C30196859B15A680123484693409C
S31502004D204A608B6000F062FED9F81C3000221A60DD
S31502004D302B1EB7BF23F00043002301220393ACBF0F
S31502004D40336032608E4B039EB34310D142F20F732F
S31502004D500C9A1360C6F31303234300F0D5841D9BFC
S31502004D60884F002B00F0D784FB1C00F0D2BC9DEDCF
S31502004D70028BB5EE408BF1EE10FA0AD101230C9AA2
S31502004D8013601D9B13B1804B1D9A13607F4F00F079
S31502004D90C2BC0EAAB0EE480B0FA9484601F010F9A4
S31502004DA0C6F30A530E9A0190002B45D018EE901ABC
S31502004DB0B0EE487BA3F2FF330025C1F3130141F0A5
S31502004DC07F5141F44011B7EE086B07EE901A9FED42
S31502004DD0645B37EE467B9FED646BA7EE056B07EED1
S31502004DE0903AB8EEE74B9FED625BB0EE467BA4EEDF
S31502004DF0057BB5EEC07BFDEEC76BF1EE10FA16EE43
S31502004E00908A08D5B8EEE66BB4EE476BF1EE10FA6F
S31502004E1018BF08F1FF38B8F1160F2DD85C4901EB1F
S31502004E20C80191ED007BB4EEC78BF1EE10FA01D505
S31502004E3008F1FF38002120E00F9B0125134403F2FD
S31502004E4032412029C9BFC1F14001C1F120018E4082
S31502004E5003F21241D8BF04FA01F103F1FF33C4BFD2
S31502004E6024FA01F1314307EE901AB8EE677B17EE8A
S31502004E70901AA1F1F871A6E70121D21A0B91531EDD
S31502004E80059345BFC2F10103002200230592B8F142
S31502004E90000F17DB059ACDF82880424405920022BE
S31502004EA00792069A092A42D8052AC5BF043A00245F
S31502004EB001240692069A023A032A43D8DFE802F050
S31502004EC03335160AC8F10002A3EB08030792002243
S31502004ED00A92E6E701220892099A08EB020B0BF105
S31502004EE0010A5246012AB8BF012206E001220892AF
S31502004EF0099A002A29DD93469246D9F81C700021A8
S31502004F00042000F11406964226D979604846049395
S31502004F1000F02CFD049B074600283DD11D4B02469E
S31502004F2040F2AF11EDE60022E1E70022D3E70124C9
S31502004F300022089406924FF0FF3B00211222DA4625
S31502004F400991DAE701220892F5E74FF0010BDA46FA
S31502004F505A46CDF824B0D0E701314000D1E700BF70
S31502004F6061436F63A787D23FB3C8608B288AC63F67
S31502004F70FB799F501344D33F5F4B0202764B0202EA
S31502004F800000F07F5B4B02022F4B02022E4B020205
S31502004F90904C0202CF4B0202D9F81C20BAF10E0F36
S31502004FA010606ED8002C6CD0B8F1000F40F3B480BC
S31502004FB008F00F01C74A18F4807F02EBC1024FEADC
S31502004FC0281192ED007B00F09B80C34A01F00F018D
S31502004FD092ED086B032288EE066B8DED026BBE48DE
S31502004FE0002940F08F809DED026B86EE077B8DEDEA
S31502004FF0027B0B999DED027B002900F0B380B7EE90
S31502005000006BB4EEC67BF1EE10FA40F1AB80BAF15A
S31502005010000F00F0A780BBF1000F30DDB2EE046B8B
S3150200502008F1FF3101325C46049127EE067B8DEDD5
S31502005030027B07EE902AB1EE0C5B9DED026BB8EE99
S31502005040E77BA7EE065B15EE902A51EC150BA2F153
S315020050505071002C40F08A80B1EE047B36EE476B2D
S3150200506041EC170BB4EEC76BF1EE10FA00F35D825A
S31502005070B1EE477BB4EEC76BF1EE10FA23D48DED99
S31502005080028B0F990029C0F22981B8F10E0F00F3A5
S315020050902581904B03EBC80393ED006B099B002B14
S315020050A080F2C880BAF1000F00F3C4800BD1B1EED2
S315020050B0047B26EE076B9DED027BB4EEC76BF1EE29
S315020050C010FAC0F22F8200242546099B3E46DB4396
S315020050D004934FF000082146484600F087FC002D55
S315020050E000F0A280B8F1000F05D0A84503D04146D2
S315020050F0484600F07BFC2946484600F077FC93E0E0
S3150200510002226CE7CC0704D5013290ED006B27EE44
S31502005110067B4910083063E722D0C8F100016D4AC8
S31502005120002401F00F00091102EBC0026A4892ED59
S31502005130007B022228EE077B8DED027B29B9002C2B
S315020051403FF457AF8DED027B53E7CE0705D501320B
S31502005150012490ED006B27EE067B49100830EDE73F
S31502005160022246E75446CDF8108062E7594A02EB1E
S31502005170C4023C4412ED024B089A41EC170B4AB3A7
S31502005180B6EE003B3E46B7EE002B83EE045BB2EE74
S31502005190043B35EE477BFDEEC64BB8EEE45B14EE00
S315020051A0902A303236EE456B06F8012BB4EEC76B09
S315020051B0F1EE10FA38D432EE465BB4EEC75BF1EE8E
S315020051C010FA6ED4A6423FF45AAF27EE037B26EEC0
S315020051D0036BE0E727EE047B21463E46B2EE043B34
S315020051E0FDEEC64B14EE902AB8EEE45B303236EE94
S315020051F0456B06F8012BA64219D1B6EE005B37EED7
S31502005200054BB4EEC46BF1EE10FA4ADC35EE475BA1
S31502005210B4EEC56BF1EE10FA7FF531AF0E460139E9
S3150200522016F8013C302BF9D0DDF8108027E026EE87
S31502005230036BD5E79DED027BB2EE044B3E4687EE4D
S31502005240065BBDEEC55B15EE103AB8EEC53B3033D4
S31502005250A3EE467B06F8013BF31B9A4532D137EEA5
S31502005260077BB4EEC67BF1EE10FA18DCB4EE467B91
S31502005270F1EE10FA03D115EE103ADB070FD40199BD
S31502005280484600F0B3FB00230C9A337008F1010381
S3150200529013601D9B002B00F03E821E603BE2CDF8A0
S315020052A0108033461E4613F8012D392A06D19F4235
S315020052B0F8D1049A0132049230223A701A780132F5
S315020052C01A70B1E727EE047BB5EE407BF1EE10FAD9
S315020052D0B5D1D4E7904C0202684C0202089A002A21
S315020052E000F0E580069A012A00F3C680002D00F040
S315020052F0BF8001F23341079C1E460B444846049385
S31502005300059B0B440121059300F026FC049B0546F0
S3150200531056B1059A002A07DDB2420599A8BF324660
S315020053209B1AB61A8A1A0592079A12B3089A002A83
S3150200533000F0C1809CB12946224648460D9300F0F2
S31502005340C5FC019A01460546484600F01BFC019938
S315020053500490484600F04AFB049A0D9B0192079A74
S31502005360121B06D004930199484600F0AFFC049B39
S31502005370019001214846049300F0EEFB0A9A044686
S31502005380049B002A00F0CD810146484600F09EFCAF
S31502005390069B0446012B049B00F39480029A002A82
S315020053A040F08C80039AC2F31302002A40F08880F0
S315020053B0039A22F00042120D120522B1059A013318
S315020053C001320592012207920A9A002A00F0AF8161
S315020053D02269049304EB8202106900F071FB049BBC
S315020053E0C0F12000059A104410F01F0075D0C0F1DC
S315020053F02002042A69DDC0F11C00059A0344024416
S3150200540006440592002B05DD1A460199484600F02E
S31502005410B7FC0190059B002B05DD21461A4648463E
S3150200542000F0AEFC04460B9B002B58D02146019897
S3150200543000F012FD002852DA08F1FF330A22019920
S3150200544048460493002300F0F3FA089B0190002BD0
S3150200545000F06F81294600230A22484600F0E8FA46
S31502005460BBF1000F054666DC069B022B40DC62E0C0
S315020054700E99C1F136013EE70AF1FF34079AA242BC
S3150200548007DBBAF1000FA2EB04040CDB1E46514601
S3150200549033E7079A1E460A99A21A07940024114472
S315020054A00A91514629E7A3EB0A06002125E7079C44
S315020054B01E46089D2CE7079A049354E7002282E7CA
S315020054C0029A80E70022079282E79BD01C32059956
S315020054D0114413441644059194E70246F6E7BAF1DD
S315020054E0000FD346CDF8108021DC069B022B1EDD71
