S018000072613870315F6D795F7169616E7361692E73726563D6
S31502000000E0450022651600020D1500026116000287
S3150200001061160002611600026116000261160002F4
S31502000020000000000000000000000000611600024F
S31502000030611600020000000061160002611600024D
S315020000407D090002D50800020D0A0002590A0002C3
S31502000050104000000000000003000000E4460022F9
S315020000601400002200000000E44600224C47002251
S31502000070B44700220000000000000000000000005B
S315020000800000000000000000000000000000000068
S315020000900000000000000000000000000000000058
S315020000A00000000000000000000000000000000048
S315020000B043000000000000000000000000000000F5
S315020000C00000000000000000000000000000000028
S315020000D043000000000000000000000000000000D5
S315020000E00000000000000000000000000000000008
S315020000F043000000000000000000000000000000B5
S3150200010000000000000000000000000000000000E7
S315020001104300000000000000000000000000000094
S3150200012000000000000000000000000000000000C7
S315020001304300000000000000000000000000000074
S3150200014000000000000000000000000000000000A7
S315020001504300000000000000000000000000000054
S315020001600000000000000000000000000000000087
S315020001704300000000000000000000000000000034
S315020001800000000000000000000000000000000067
S31502000190153D0002F13C000200000000304700025B
S315020001A03046000231460002314600023146000264
S315020001B03146000231460002314600023146000253
S315020001C03146000231460002FFFFFFFFFFFFFFFF3D
S315020001D0FFFFFFFFFFFF00000100415343494900B3
S315020001E00000000000000000000000000000000007
S315020001F0000000000000000000004153434949008E
S3150200020000000000000000000000000000000000E6
S31102000210000000000000000000000000DA
S315020002200348044B834202D0034B03B1184770477D
S31502000230CC010022CC01002200000000064B074937
S31502000240C91A891048BF0131491003D0044B0BB1BA
S3150200025001481847704700BFCC010022CC0100229A
S315020002600000000010B5064C237843B9FFF7D8FF0B
S31502000270044B13B10448AFF300800123237010BD71
S31502000280104600220000000028F1C90208B5054BFD
S315020002901BB105490548AFF30080BDE80840FFF7EA
S315020002A0CDBF00BF000000001446002228F1C9029B
S315020002B010B5044B9C681868A368144698472046F4
S315020002C010BD00BF8C3D000208B500230B49022277
S315020002D009680B4C8868194601F05AFF094BD3E9A5
S315020002E00112186812689047204601F049FF4FF440
S315020002F07A714FF4FA7001F0C5F8F5E710000022A2
S31502000300803D00028C3D0002022800D0704702495F
S31502000310024800F0AFBC00BFCC3D00022C460022D2
S3150200032008B5FFF7D1FF002008BD00BF0346002035
S31502000330C3E90612704700BF844610B4406A836858
S3150200034023F440138360DCF82440A36C5800FCD5E8
S31502000350A36823F01003A360DCF82440237FC3F3D1
S315020003600010DB06FAD4CCE90412A36843F010139A
S31502000370A3605DF8044B704784460020CCE90B323B
S31502000380CCF82810704700BF4FF0FF330020C1E9B8
S31502000390003370478B0784461DD5426A936823F45F
S315020003A040139360426A936C5800FCD5936823F01D
S315020003B010039360DCF82400037FC3F30012DB060C
S315020003C0FAD41046CCF81420CB0703D500231846DE
S315020003D0CCF81C3070470620F6E700BF0346002221
S315020003E010B4DC6910460C60DA615DF8044B7047A4
S315020003F00620704730B40124164D530902F01F0C33
S31502000400203304FA0CF445F82340BFF34F8FBFF3B1
S315020004106F8F114B02F5C65C53F82C4024F48034DE
S3150200042043F82C4053F82C300901002AC9B207DBE5
S315020004300A4B154485F8001343F8220030BC704776
S31502000440074B02F00F0423441976044B43F82200AB
S3150200045030BC704700E100E000600040C046002268
S31502000460FCEC00E0F0B5C46A85B005460F4694463A
S315020004706E46B4B194E80F0086E80F002B6A204658
S315020004801B78A760236084F804C02B6BE360AB6A19
S315020004909847EC6A1CB196E80F0084E80F0005B095
S315020004A0F0BD3446EAE700BFF8B5394B42689A42D6
S315020004B06BD10446426A936823F440139360426AFE
S315020004C0936823F010039360426A137FC3F3001507
S315020004D0DB06FAD40121236A2E4A93F9073058091A
S315020004E003F01F03203001FA03F342F82030BFF372
S315020004F04F8FBFF36F8F236A93F90930580903F0C0
S315020005001F0301FA03F3203042F82030BFF34F8F66
S31502000510BFF36F8F606A836823F480338360236A34
S3150200052093F90530580903F01F0301FA03F320304B
S3150200053042F82030BFF34F8FBFF36F8F236A93F9D0
S315020005400B30580903F01F0301FA03F3203042F877
S315020005502030BFF34F8FBFF36F8FEFF3108681F317
S3150200056010884FF00043276A0B4A97F800C050687C
S3150200057023FA0CF30343536053681E2000F082FFF4
S3150200058086F3108865602846F8BD0720F8BD00BFCF
S315020005904249435300E100E000302040002370B599
S315020005A0026AD56983606B7C03B970BD184B044639
S315020005B093F8543003F00F03072B24D8DFE803F037
S315020005C0040404211F191B1D01269E40104B93F89B
S315020005D0550000F00F0000F0EFFEB0FBF6F00D4BF9
S315020005E01A686B7C02FB03F3B3FBF0F30133A360DF
S315020005F070BD0326EAE70526E8E70A26E6E70826A7
S31502000600E4E70626E2E71026083B9E40DEE700BF47
S3150200061000E00140E0460022F8B5002704460E46F7
S31502000620416A8D6825F4441222F011028A6007613C
S31502000630FFF7B4FF636A326825F440151A61636AEC
S3150200064038469D60F8BD00BF0620704700222DE99E
S31502000650F04101270B78027003F5800303F5565328
S315020006601B02436201624B690D4683628B69044633
S31502000670C0E90B238378CE6967F3010383704B7855
S31502000680934214BF3A460222837862F301038370CF
S3150200069091F90B20897AFFF7ADFE95F905202979A4
S315020006A0FFF7A8FE95F90720A979FFF7A3FE95F9AA
S315020006B00920297AFFF79EFEEFF3108887F3108848
S315020006C04FF000412A787B4BD1405A6822EA010258
S315020006D05A605B681E20394600F0D4FE88F3108803
S315020006E04FF48062636A9A606B78E978EA691B0262
S315020006F0890301F4804103F440730B431178506877
S31502000700090601F040710B435178C90389B20B43C4
S31502000710517B490501F400110B43616A43F480538E
S315020007204B611378991EB94240F2BD800368616A33
S315020007300B61117BAB7801F0030141F0300133B15B
S31502000740022B14BF4FF440734FF48073194393780E
S3150200075000201B0703F080530B43616ACB60012321
S31502000760616A886129788B40C3F3090313B1636A0E
S31502000770514959620025937BD17B127C01F01F01FE
S3150200078003F0010302F01F0243EA0123616A43EA0E
S3150200079002430B632046C4E90455C4E90655FFF734
S315020007A0FDFE7089626A4549A0819166226A444BC0
S315020007B092F9052002F5C65153F8210065F310405F
S315020007C043F8210053F82110BFF35F8F012102F095
S315020007D01F005209920002F1604202F5614201FADB
S315020007E000F0C2F880011060226A92F90B2002F52D
S315020007F0C65053F8206065F3104643F8206053F85C
S315020008002000BFF35F8F02F01F005209920002F12F
S31502000810604201FA00F002F56142C2F880011060FE
S31502000820226A92F9072002F5C65053F8206065F352
S31502000830104643F8206053F82000BFF35F8F02F0A2
S315020008401F005209920002F1604201FA00F002F51D
S315020008506142C2F880011060226A92F9092002F50B
S31502000860C65053F8206065F3104643F8206053F8EB
S315020008702030BFF35F8F53099B0002F01F0203F182
S315020008806043914003F56143C3F8801119600D4A34
S31502000890636A9A60626A137FDB07FCD50A4B002003
S315020008A06360BDE8F0810949022B094B18BF0B466C
S315020008B03DE700BF0030204000001F1F1000079DCB
S315020008C000600040110401004249435304FF00FF47
S315020008D024FF00FF38B5EFF30383103B254A5BB2D2
S315020008E003F5C65152F8210020F4803042F8210067
S315020008F052F82120204A52F82340236A1B69B3B1D9
S31502000900636903B138BD636A9D68A06825F48015E2
S3150200091045F4001518BB00219D60A36A2161002BD6
S31502000920F0D02046BDE838408022FFF79BBD6269C1
S31502000930636A002AE8D0A278216902F00302022A39
S3150200094011D00A781A71A278D4E9041302F00302CC
S315020009509B1A1144C4E90413002BD3D1D3E700F048
S315020009608BFD636AD7E70A8822F4DC4292B25A60A8
S31502000970E9E700BF00600040C046002210B582B021
S31502000980EFF30383103B1F4A5BB203F5C65152F8DD
S31502000990210020F4803042F8210052F821201A4A20
S315020009A052F82340A27802F00303022B636A0CBFBB
S315020009B019681978E3690CBFC1F30801C9B201913C
S315020009C043B9A36AB3B10422204602B0BDE810407F
S315020009D0FFF748BD02F0030201A9A06901F0BFFDBD
S315020009E0D4E90621A37803F003031A44C91AC4E919
S315020009F0062109B102B010BDA36A002BFAD001226A
S31502000A00E2E700BF00600040C046002210B5EFF3E7
S31502000A1003830F4A103B5CB252F82400426A936881
S31502000A2023F4401323F010039360836A1BB102225E
S31502000A300021FFF717FD074A04F5C65352F82310A3
S31502000A4021F4803142F8231052F8233010BD00BF42
S31502000A50C04600220060004038B5EFF303831D4A0A
S31502000A60103B5CB252F824008378456A03F0030314
S31502000A70022B0CBF29682978AA6C08BFC1F30801AA
S31502000A80C2F30073C2F3006C4FEA031343EA4C133A
S31502000A90C2F3C06243EAC20C18BFC9B2DB066246A1
S31502000AA004D5AB6C1B0458BF4CF04002AB6E43F04E
S31502000AB0C853AB66836A0BB1FFF7D4FC064A04F54A
S31502000AC0C65352F8231021F4803142F8231052F80B
S31502000AD0233038BDC0460022006000402DE9F84FA1
S31502000AE00388DBB14FF0000A80464FF00109DFF8B8
S31502000AF0D4B00024314D4FEACA07D8F8043035F88D
S31502000B00022BD919898891420AD00134032CF4D1D7
S31502000B10B8F800300AF1010A5345EAD8BDE8F88F61
S31502000B20DB5909FA04F603F0B853B3F1807F244B7C
S31502000B30F6B293F84C2C12D0324230D104F1200294
S31502000B401BF81230DB09E0D01BF81230012123F02A
S31502000B508003C8200BF8123000F094FCD5E732422D
S31502000B6010D004F120021BF81230DB09CDD11BF89C
S31502000B701230012143F08003C8200BF8123000F036
S31502000B8081FCC2E7012000F029FD0D4B012093F8FC
S31502000B904C2C324383F84C2C00F0F0FCE1E70120A8
S31502000BA000F01CFD064B012093F84C2C22EA0602AB
S31502000BB083F84C2C00F0E2FCC0E700BFEC420002D6
S31502000BC000E0014000202040F8B50646FFF786FF08
S31502000BD0EFF31082012383F31088234F3B681BB97E
S31502000BE0402022490B7508753B6801333B6082F34E
S31502000BF01088338800211BB31D4D08E01B011344E6
S31502000C0045F82340328801318BB29A4218D973686B
S31502000C1053F8314003EBC1029288E0034FEA1223F4
S31502000C20D2B2EBD502EB031055F820E024F4803C57
S31502000C302EF4803E45F820E01B0145F820C0DEE791
S31502000C40EFF31082012383F310883B6813B13B68EC
S31502000C50013B3B603B681BB9802004490B75087554
S31502000C6082F31088F8BD00BFBC460022000D40404A
S31502000C700008404008B5034B03600846FFF7A4FF8F
S31502000C80002008BD54524F501D4A92F82630928CCD
S31502000C90DBB202F00F02A2F1080103292BD8DFE82A
S31502000CA001F020160C021749174A51F82330A2FB0D
S31502000CB003231B09154A136070471249124A51F859
S31502000CC02330A2FB0323114ADB08136070470D4948
S31502000CD00D4A51F82330A2FB03230C4A9B081360EA
S31502000CE070470849084A51F82330A2FB0323074AF2
S31502000CF05B0813607047034951F82330D340D9E7A4
S31502000D0000E00140E0450022ABAAAAAAE046002282
S31502000D10704700BF4AF20351F8B5594B594AB3F826
S31502000D20FA43A3F8FA1353680746D903A4B21AD5AD
S31502000D30544B00255A68920329D50026504A524937
S31502000D4092F8753092F86D2003F00F0302F00F024D
S31502000D5051F82330072A00F28E80DFE802F02929B3
S31502000D6029888A828486EFF31086012585F3108806
S31502000D70536843F48033536053681E20294600F0BB
S31502000D8081FB86F310883F4B5A689203D5D4EFF362
S31502000D901086012181F310885A6842F400325A60A3
S31502000DA05B681E2000F06EFB86F310880226C5E7FC
S31502000DB0012101FA02F2B3FBF2F30121334AA2FB4B
S31502000DC003239B0C03FA01F000F05CFB2C4A92F819
S31502000DD0753043F0400382F8753092F87530DB09BE
S31502000DE0FBD07B78264982F86D303B7843F040038E
S31502000DF082F875303B7882F8753091F87530DB09E8
S31502000E00FBD135B9BEB91E4B44F42544A3F8FA43C7
S31502000E10F8BDEFF31085012181F31088194B5A684A
S31502000E2022F480325A605B681E2000F02BFB85F3A9
S31502000E301088002EE7D0EFF31085012181F3108888
S31502000E40104B5A6822F400325A605B681E2000F08A
S31502000E5019FB85F310880A4B44F42544A3F8FA4398
S31502000E60F8BD0322A7E70522A5E70A22A3E7062281
S31502000E70A1E708229FE71021083A01FA02F29AE74F
S31502000E8000E0014000302040E045002283DE1B43A3
S31502000E904AF203529FEDBC4B9FEDBD5BC24BC3486A
S31502000EA0C34930B5C3E90801C24CC3499FEDBA6BC9
S31502000EB09FEDBB7B9962A4F8FA23A3EC045F83B08F
S31502000EC083ED007FFFF7E0FE09230A2284F8502A09
S31502000ED084F8A23094F8003C23B994F8013C9C07AC
S31502000EE000F06382B34C94F8003C002B00F052826F
S31502000EF00022B04B83F8012C83F8002C0022AD4B64
S31502000F0083F8362083F8322093F83C201007FBD56D
S31502000F1040F2234400204FF6021140F25142A74DFF
S31502000F20C3F8C850A3F84E4083F84A00C3F8AC1081
S31502000F30A3F84C20BFF34F8FBFF36F8FA04A5169BE
S31502000F4021F400315161C2F85002BFF34F8FBFF353
S31502000F506F8F9C490A6822F440520A60BFF34F8F92
S31502000F60BFF36F8F0120197D924A60F30201197552
S31502000F70137DD906FCD4934A136843F44053136095
S31502000F80BFF34F8FBFF36F8FA2F57342536913F40A
S31502000F90003311D1BFF34F8FBFF36F8FC2F85032B8
S31502000FA0BFF34F8FBFF36F8F536943F4003353611F
S31502000FB0BFF34F8FBFF36F8F00237E4A82F82A302A
S31502000FC092F83C309B06FBD500227F4B1A701A78AA
S31502000FD01A781A785A68FA2A04D07C4959605A68EB
S31502000FE0FA2AFBD1784B9A687D2A04D0784999600F
S31502000FF09A687D2AFBD1052242F220116D4B754873
S315020010001862998483F82620FFF73EFE01211E20EE
S3150200101000F038FA6C4A5368C3F30903642B84BFA1
S3150200102001231370FFF730FE4AF201526A4B1A800F
S31502001030BFF35F8F01221A72BFF35F8F4FF4254110
S315020010405C4A198092F8DA3043F0400382F8DA30CB
S3150200105092F8DA30DB09FBD0C923032082F8D400E8
S3150200106082F8DA3092F8DA30524903F0BF0382F896
S31502001070DA3091F8DA30DB09FBD10124802081F8DD
S31502001080534081F83E3081F83E0091F87430494A67
S3150200109043F0400381F8743092F87430DB09FBD0D8
S315020010A007204A210A23434C82F86C0082F8741006
S315020010B082F8743094F87430DB09FBD14FF00703E1
S315020010C001A8ADF80430FFF725FE94F87630394AC8
S315020010D043F0400384F8763092F87630DB09FBD091
S315020010E0CA23032082F86E0082F8763092F87630B0
S315020010F0304903F0BF0382F8763091F87630DB0987
S31502001100FBD191F855302B4A43F0400381F8553014
S3150200111092F85530DB09FBD0CA23022082F854002C
S3150200112082F8553092F85530224903F0BF0382F80F
S31502001130553091F85530DB09FBD191F857301D4AED
S3150200114043F0400381F8573092F85730DB09FBD061
S31502001150C723002082F8560082F8573092F857309B
S31502001160144903F0BF0382F8573091F85730DB0970
S31502001170FBD191F85D300F4A43F0400381F85D30B0
S315020011802CE000BFAFF30080006CDC0200127A0094
S315020011900080000000366E010080000000CA9A3B03
S315020011A00046C3235543DE13E04500220084D717C9
S315020011B00008AF2F00E0014000389C1C022B010002
S315020011C000ED00E000E001E000C01340FA00001E5E
S315020011D07D0000E1323423320020004092F85D3077
S315020011E0DB09FBD0C62082F85C3082F85D0092F8FB
S315020011F05D30704903F0BF0382F85D3091F85D30CF
S31502001200DB09FBD191F878306A4A43F0400381F852
S31502001210783092F87830DB09FBD0C923022082F8B5
S31502001220700082F8783092F87830624903F0BF0392
S3150200123082F8783091F87830DB09FBD191F85F308B
S315020012405C4A43F0400381F85F3092F85F30DB0975
S31502001250FBD0CA2082F85E3082F85F0092F85F30D7
S31502001260544903F0BF0382F85F3091F85F30DB091F
S31502001270FBD191F877304F4A43F0400381F877303B
S3150200128092F87730DB09FBD0CA23042082F86F007C
S3150200129082F8773092F87730464903F0BF0382F836
S315020012A0773091F87730DB09FBD191F85B30414A10
S315020012B043F0400381F85B3092F85B30DB09FBD0E8
S315020012C0CA23022082F85A0082F85B3092F85B3019
S315020012D0384903F0BF0382F85B3091F85B30DB09D3
S315020012E0FBD191F8DB30334A43F0400381F8DB301F
S315020012F092F8DB30DB09FBD0C523022082F8D50049
S3150200130082F8DB3092F8DB302A4903F0BF0382F819
S31502001310DB3091F8DB30DB09FBD191F8DC30254A72
S3150200132043F0400381F8DC3092F8DC30DB09FBD075
S31502001330C52082F8D63082F8DC0092F8DC301D49EE
S3150200134003F0BF0382F8DC3091F8DC30DB09FBD115
S3150200135091F8DE30174A43F0400381F8DE3092F806
S31502001360DE30DB09FBD0C923092082F8D80082F8D7
S31502001370DE3092F8DE300F4903F0BF0382F8DE302A
S3150200138091F8DE30DB09FBD14FF42543A1F8FA339D
S3150200139003B030BD0121C82084F8001C00F072F8A9
S315020013A094F8003C012BFBD1A2E54FF47A70FFF7CB
S315020013B0AFFCA3E500E00140014B53F82000704763
S315020013C0E045002238B50025284C0121C82084F8C2
S315020013D0285000F057F884F8245094F82430002B53
S315020013E0FBD194F82430214943F0020384F82430D7
S315020013F091F82430C3F340009B07F9D41B4A81F8C5
S31502001400220092F8223003F0FF00002BF9D192F865
S315020014104030164960F3C71382F8403091F84030E5
S31502001420DB09FBD191F84200104A63F3C71081F839
S31502001430420092F84230DB09FBD192F844000B4994
S3150200144063F3C71082F8440091F84430C3F3C01422
S31502001450DB09F9D1012000F0C1F8054B012083F820
S315020014604C4CBDE8384000F089B800BF002020404F
S3150200147000E0014000BEFEE7A0F101000028FBD11A
S31502001480704700BF1E4B1F4A1B6800FB01F19342C7
S3150200149013D302F1854202F5071203F5742302F60D
S315020014A0834203F23F23A2FB03239B0CA3FB0131DE
S315020014B04FF0FF30E1B1FFF7DFBF4FF47A7210B49D
S315020014C0114C4FF0FF30B4FBF3F3A1FB02C434B965
S315020014D0BCFBF3F080B15DF8044BFFF7CDBFB1FB67
S315020014E0F3F1A1FB0212002AF5D1084620B1F2E778
S315020014F01846002BDFD170475DF8044B704700BFDA
S31502001500E046002200127A0000CA9A3BF8B500248F
S3150200151001260D4B0D4FD3F80021D3F8205115406B
S3150200152006FA04F32B4204D057F82430E0B203B192
S3150200153098470134152CF3D1034AC2F81051D2F858
S3150200154020312B42FBD1F8BD00C000406846002284
S315020015500022042310B40748074C30F8021B02F598
S31502001560C65C013209B144F82C10013BF5D15DF895
S31502001570044B7047B842000200600040EFF310814E
S31502001580012383F31088124B33F8102092B22AB14A
S3150200159033F81020013A92B223F8102033F81030B3
S315020015A09BB293B910B40B4A0B4CB2F8FA3334F827
S315020015B010009BB243F4254323EA0003A2F8FA3350
S315020015C081F310885DF8044B704781F310887047E9
S315020015D0D046002200E001402445000230B4EFF379
S315020015E01081012383F310880E4A32F810309BB221
S315020015F06BB90D4C0D4DB4F8FA3335F810C09BB2E9
S3150200160043EA0C0343F425439BB2A4F8FA3332F8B7
S31502001610103001339BB222F8103081F3108830BCAF
S31502001620704700BFD046002200E001402445000278
S3150200163008B509490A688318B3F5804F03D80748E5
S315020016400B60104408BD00F081FF0C2203461A60AD
S315020016504FF0FF3008BD00BFDC460022E001002249
S3150200166000BE704708B500F037F8FEF759FEFEE7F0
S31502001670F8B5174F05463E68A6B17C6806EB4606E6
S3150200168004EB860602E00C34B4420BD0637AAB421A
S31502001690F9D1D4E900020021121A0C3400F004FF39
S315020016A0B442F3D1BE6896B1FC6804EB061602E0BA
S315020016B01034A6420BD0637BAB42F9D1D4E90002C7
S315020016C0A168121A103400F04AFFA642F3D1F8BDFF
S315020016D0F442000200000000F8B5844A844B5A61C5
S315020016E0BFF34F8FBFF36F8F1B6803F47002B2F51F
S315020016F0801F00F0D48013F4600F00F0BC807D4A96
S31502001700136823F004031360BFF34F8FBFF36F8F89
S315020017104FF47002784B764C0020C4F88820A36000
S31502001720FEF7F2FD0025FFF7B3FB4AF202514FF432
S315020017302542724B0120A3F8FA1383F8B05AA3F894
S31502001740FA23FEF7E1FD6E4B83F30A88694B1A68AA
S31502001750910704D5A268B2F1007F00F0A4800020B0
S31502001760FFF786FFFFF790FAFFF72CFE0320FFF73D
S3150200177035FF00234FF00E0E1C464EF001E0614984
S3150200178003F10C0221F8224001330FF007C80320AF
S31502001790FFF7F4FE0320FFF721FF5B4B03205C609B
S315020017A09C60DC601C61554CFFF7E8FED4F8D83328
S315020017B09A0747D5D4F8D833504CD4F8D8335B07B8
S315020017C027D5D4F8D8330220FEF79EFD0120FFF775
S315020017D04FFFBFF34F8FBFF36F8F0024444BC3F805
S315020017E05042BFF34F8FBFF36F8F484B484D5B1B81
S315020017F0A3424FEAA30605DD55F8043B0134984798
S31502001800A642F9DCFFF7A4FEBDE8F840002000F08E
S3150200181081B894F81431002BD5D00120FFF7DEFEF3
S3150200182094F8143103F0C003802BF9D10023334A14
S3150200183084F8143192F814313F2BFBD80120FFF7BC
S315020018409DFEC0E794F81031002BB5D00120FFF7BA
S31502001850C5FE94F8103103F0C003802BF9D10023A2
S31502001860264A84F8103192F810313F2BFBD801201A
S31502001870FFF784FEA0E71F4A136843F004031360D0
S31502001880BFF34F8FBFF36F8F4FF0E022936843F49D
S3150200189080339360BFF34F8FBFF36F8F38E718071C
S315020018A07FF42DAF27E701211A695869C2F3C302F3
S315020018B0093201FA02F300260027DB0843F005C0CD
S315020018C0E5E802670FF005C0C0F3C303093301FA66
S315020018D003F34FF00052DB0843F007C0AFF300807A
S315020018E0E2E802670FF005C039E700BF01020E0009
S315020018F000ED00E000E001E00000000200E001402F
S31502001900E0410022000D4040004020409048000285
S315020019108C480002704700BFF0B52DED028BB0EE89
S31502001920408B85B017460C460D9D18EE902A0C9EEC
S3150200193025F02005002AB6BF2D220022B1EE408BEB
S31502001940462D1A7004D0452D00D10134022100E043
S31502001950032103ABB0EE480B2246019302AB009380
S31502001960334600F0A1FE472D14D1FB070AD5021912
S31502001970B5EE408B3021F1EE10FA08BF0392039BBD
S31502001980934219D3039B0E9A1B1A136005B0BDEC42
S31502001990028BF0BD462D00EB0402E9D10378302B11
S315020019A007D1B5EE408BF1EE10FA1CBFC4F101046B
S315020019B0346033681A44DBE75C1C03941970DEE773
S315020019C0F7B500290270BABF49422D232B230929F4
S315020019D0437028DD0DF107030A271D461A46013B0F
S315020019E0B1FBF7F607FB1614303402F8014C0C462D
S315020019F03146632CF2DC3031941E03F8011C411C83
S31502001A002346AB420AD30DF109039B1AAC4288BFA7
S31502001A10002302330344181A03B0F0BD13F8016B16
S31502001A2001F8016FEDE7302330318370031DC17079
S31502001A30F1E70000000000002DE9F04F8DB00C46E2
S31502001A4016461F46DDF85880054600F035FDD0F8EB
S31502001A5000B0584600F090FD002394F818900A93BF
S31502001A60D8F8003022680733059023F0070303F104
S31502001A700801C8F8001093ED000B9FED976BB0EECE
S31502001A80C07B84ED120BB4EE467BF1EE10FA24DD38
S31502001A90B5EEC00BF1EE10FA02D52D2384F84330D1
S31502001AA08F49904BB9F1470F8CBF8846984622F072
S31502001AB0040203234FF0000A2260236133460BAA75
S31502001AC021462846009700F0D1F9013040F089807E
S31502001AD04FF0FF300DB0BDE8F08FB4EE400BF1EEE3
S31502001AE010FA09D710EE903A7F49002BBCBF2D237E
S31502001AF084F843307D4BD5E7636809F0DF0A591C49
S31502001B0039D10623636042F48062002328462260AC
S31502001B1003930AABCDE9019309AB00930DF12303BD
S31502001B206168FFF7F9FEBAF1470F8046099929D194
S31502001B30C81C02DB6368994241DDA9F102095FFA1A
S31502001B4089F901394A4604F150000991FFF738FF35
S31502001B500A9A82461318012A236102DC2268D207F6
S31502001B6001D5013323619DF82330002BA6D02D2306
S31502001B7084F84330A2E7BAF1470FC4D1002BC2D191
S31502001B800123BFE7B9F1650FDBD9B9F1660F18D1A9
S31502001B90002963680BDD216113B92268D00702D5DB
S31502001BA001330B4423614FF0000AA165DBE713B949
S31502001BB02268D20701D50233F4E70123F2E74FF098
S31502001BC067090A9B994205DB23682161D807EAD592
S31502001BD04B1CE7E70029D4BFC1F1020201221344DC
S31502001BE0E0E723685A0507D4236942463146284668
S31502001BF0B84701302AD16BE7B9F1650F40F2E080B0
S31502001C0094ED127BB5EE407BF1EE10FA33D101234F
S31502001C10374A31462846B84701303FF459AFDDE925
S31502001C200938434502DB2368D8070FD5059B5A4678
S31502001C3031462846B84701303FF44AAF4FF0000913
S31502001C4008F1FF3804F11A0AC84509DC23689B0724
S31502001C5000F10781E0680B9B9842B8BF184639E746
S31502001C600123524631462846B84701303FF430AF89
S31502001C7009F10109E8E7099B002B3BDC01231C4A19
S31502001C8031462846B84701303FF422AFDDE909392B
S31502001C9059EA030302D12368D907D7D5059B5A46C9
S31502001CA031462846B84701303FF412AF4FF0000ADA
S31502001CB004F11A0B099B5B42534501DC4B4694E740
S31502001CC001235A4631462846B84701303FF400AF51
S31502001CD00AF1010AEEE700BFFFFFFFFFFFFFEF7FFA
S31502001CE0324500022E4500023A4500023645000200
S31502001CF03E450002A36DDDF828A05345A8BF534612
S31502001D00002B994637DC002329EAE97904F11A0205
S31502001D100793A36D07990693A3EB09038B4231DC64
S31502001D20099B9A453BDC2368DA0738D4099BAAEB60
S31502001D300309069BAAEB03039945A8BF9946B9F185
S31502001D40000F34DC4FF0000829EAE97904F11A0B96
S31502001D50099BAAEB0303A3EB090343457FF776AF7F
S31502001D6001235A4631462846B84701303FF4B0AE01
S31502001D7008F10108ECE7424631462846B8470130E9
S31502001D80C1D1A5E60123314628460692B84701305D
S31502001D903FF49EAE079B069A01330793B9E7059B6C
S31502001DA05A4631462846B8470130BFD190E6069AD0
S31502001DB04B46314628464244B8470130C2D187E6EF
S31502001DC0DDF82890B9F1010F01DCDB0736D50123D6
S31502001DD0424631462846B84701303FF479AE059B64
S31502001DE05A4631462846B84701303FF471AE09F1EA
S31502001DF0FF3994ED127BB5EE407BF1EE10FA18D066
S31502001E004B4608F1010231462846B84701300CD14B
S31502001E105EE601235A4631462846B84701303FF46A
S31502001E2057AE08F10108C845F3DB534604F15002E8
S31502001E30DCE64FF0000804F11A0BF4E701234246F0
S31502001E40E1E701234A4631462846B84701303FF4C6
S31502001E503FAE08F10108E3680B995B1A4345F0DCD3
S31502001E60F8E64FF0000804F11909F4E72DE9F04706
S31502001E70164698468A6807460B690C46DDF8209096
S31502001E809342B8BF1346336091F843200AB1013337
S31502001E9033602368990642BF33680233336025688C
S31502001EA015F0060506D104F1190AE36832689B1A91
S31502001EB0AB422BDC94F843302268003B18BF012367
S31502001EC0920630D404F1430241463846C8470130EF
S31502001ED023D023681A3454F80A2C03F00603042B81
S31502001EE00ABF54F80E5C002533684FF0000608BF9F
S31502001EF0ED1A54F8123C08BF25EAE5759342C4BFB1
S31502001F009B1AED18B5421AD1002008E00123524669
S31502001F1041463846C847013003D14FF0FF30BDE88D
S31502001F20F0870135C1E7E1185A1C302002332244FA
S31502001F3081F8430094F8451082F84310C2E7012362
S31502001F40224641463846C8470130E6D00136D9E72F
S31502001F50002310B504468360818119464366C28117
S31502001F6008228361C0E90033C0E904335C3000F023
S31502001F709BFA0D4B246263620C4BA3620C4BE36229
S31502001F800C4B23630C4B9C4206D003F1680294422D
S31502001F9002D0D0339C4205D104F15800BDE810406E
S31502001FA000F0DABA10BD00BFF92200021B230002BC
S31502001FB05323000277230002E4460022024A034921
S31502001FC0034800F069B800BF04000022513B00023A
S31502001FD01400002241680C4B994210B5044601D008
S31502001FE001F0B6FDA168094B994202D0204601F0E4
S31502001FF0AFFDE168064B994204D02046BDE8104089
S3150200200001F0A6BD10BD00BFE44600224C470022E7
S31502002010B447002210B50B4B04210B4C0B4A204649
S315020020201A600022FFF794FF04F1680001220921D9
S31502002030FFF78EFF04F1D00002221221BDE8104004
S31502002040FFF786BF1C480022E4460022BD1F00029D
S31502002050014800F082BA00BF25480022014800F07C
S315020020607DBA00BF2548002210B50446FFF7F0FFEF
S31502002070236A1BB1BDE81040FFF7F0BF044B236291
S31502002080044B1B68002BF5D1FFF7C4FFF2E700BF34
S31502002090D51F00021C4800222DE9F8430746884650
S315020020A014460026D4E90195B9F1010905D524683B
S315020020B0002CF7D13046BDE8F883AB89012B07D94E
S315020020C0B5F90E30013303D029463846C0470643D8
S315020020D06835E9E7036A70B505460E4684680BB9AA
S315020020E0FFF7C2FF636EDB0705D4A389980502D406
S315020020F0A06D00F032FAA389190702D52369002BD5
S3150200210035D12146284600F079F980B34FF0FF35E4
S31502002110636EDA0705D4A3899B0502D4A06D00F08D
S315020021201DFA284670BD002B04DAA2699A4217DC12
S315020021300A2915D023685A1C22601970A36816F85A
S31502002140011F013BA3600029EDD1002B11DA2246C3
S315020021500A21284600F013F90130D7D00A25D7E71D
S315020021602246284600F00BF90130E7D1CEE7013EC0
S31502002170E4E723685A1C22600A221A70EEE700007E
S31502002180024B01461868FFF7A5BF00BF10000022E8
S315020021902DE9F7431D46574B04460E461F689046E7
S315020021A027B13B6A13B93846FFF75EFFB8F1020F53
S315020021B006D0B8F1010F00F29980002DC0F2968088
S315020021C0636ED90705D4A3899A0502D4A06D00F0DF
S315020021D0C4F92146384601F0BBFC616B41B104F1FA
S315020021E04403994202D0384600F0ACFF00236363F1
S315020021F00023A3616360A3891B0603D521693846C0
S3150200220000F0A0FFA389B8F1020F23F44A6323F07A
S315020022100303A38160D001AB6A462146384601F02A
S31502002220BFFCA3891843A0812DBB009D284600F060
S31502002230D3FF0646002851D1DDF80090A9453FD1CB
S315020022404FF0FF35B4F90C3043F00202A2810022AE
S31502002250A26004F147022260226101226261626E7B
S31502002260D60704D4980502D4A06D00F077F9284663
S3150200227003B0BDE8F083002ED8D03B6A13B93846C6
S31502002280FFF7F2FEB8F1010F266002BFA38943F001
S315020022900103A381B4F90C3013F00802C4E9046502
S315020022A01ED0D90745BF00226D42A560A26048BF75
S315020022B0A561626ED20701D49B0513D50025D6E728
S315020022C0484600F089FF06460028B9D0A3894D4644
S315020022D043F08003A381D0E70025B3E7A946F5E7DB
S315020022E0A260E6E7A06D00F039F9E7E74FF0FF35A7
S315020022F0BDE700BF1000002210B50C46B1F90E1062
S3150200230000F000F90028ABBF636DA3891B1823F404
S315020023108053ACBF6365A38110BD2DE9F0411F4612
S315020023208B8905460C46DB05164605D50223002297
S31502002330B1F90E1000F0D4F8A3893246B4F90E10A2
S31502002340284623F48053A3813B46BDE8F04100F0C2
S31502002350EBB810B50C46B1F90E1000F0C1F8431CEB
S31502002360A38915BF606523F4805343F48053A38188
S3150200237018BFA38110BDB1F90E1000F0A1B8F8B5CF
S315020023800E461446054618B1036A0BB9FFF76CFEF2
S31502002390A369A360A3891A0701D5236943B9214614
S315020023A0284600F02BF818B14FF0FF373846F8BD33
S315020023B02368F6B222693746981A6369834205DCB6
S315020023C02146284601F0C4FB0028EDD1A368013B53
S315020023D0A36023685A1C22601E70431C62699A42DB
S315020023E004D0A389DB07E1D50A2EDFD12146284690
S315020023F001F0AEFB0028D9D0D6E7000038B5294B4C
S3150200240005460C46186818B1036A0BB9FFF72CFE8D
S31502002410B4F90C30190722D4DA0607D409222A6045
S3150200242043F040034FF0FF30A38133E0580712D543
S31502002430616B41B104F14403994202D0284600F08F
S3150200244081FE00236363A38923F02403A38100236F
S31502002450636023692360A38943F00803A381236988
S315020024604BB9A38903F42073B3F5007F03D0214649
S31502002470284601F0BAFBB4F90C3013F001020AD077
S315020024800022A26062695242A261226942B913F035
S315020024908000C5D138BD990758BF6269A260F4E7CA
S315020024A00020F7E71000002202440346934200D1BF
S315020024B0704703F8011BF9E70048704750010022F4
S315020024C038B50023054D044608462B6001F030FC62
S315020024D0431C02D12B6803B1236038BD2048002279
S315020024E038B50446064D0846114600222A601A46A9
S315020024F001F036FC431C02D12B6803B1236038BDC0
S315020025002048002238B50446064D084611460022E8
S315020025102A601A4601F02CFC431C02D12B6803B137
S31502002520236038BD2048002238B50446064D0846C9
S31502002530114600222A601A46FDF7BAFE431C02D152
S315020025402B6803B1236038BD20480022014B18686E
S31502002550704700BF100000227047704770470A4458
S31502002560431E914200D1704710B511F8014B9142BA
S3150200257003F8014FF9D110BD034613F8012B002AC7
S31502002580FBD1181A013870472DE9F74F0369074640
S315020025900C69A342C0F28380013C00F1140501F1EB
S315020025A01408A30055F8242008EB8409009305EBD0
S315020025B08403019358F8243001339A42B2FBF3F6AE
S315020025C031D34FF0000AC446AE46D3465CF8043B0C
S315020025D098B2E1454FEA134306FB00A04FEA1042C8
S315020025E080B206FB0323DEF8002092B24FEA134ABA
S315020025F0A2EB00029BB2DEF800005A44C3EB224370
S3150200260092B203EB104342EA03424FEA234B4EF8DF
S31502002610042BDBD2009BEB582BB9019B043B9D425A
S315020026201A4630D33C61384601F002F9002826DB0F
S315020026302946002058F8042BD1F800C01FFA82FE62
S31502002640C1451FFA8CF34FEA1242A3EB0E03034471
S31502002650C2EB23429BB202EB1C4243EA02434FEA1D
S31502002660224041F8043BE5D255F8242005EB8403C9
S3150200267022B9043B9D421A460BD33C6101363046D1
S3150200268003B0BDE8F08F1268043B002ACAD1013CB0
S31502002690C5E71268043B002AEFD1013CEAE70020B5
S315020026A0EEE70000000000002DE9F04FC769814601
S315020026B02DED028B91B055EC104B1C9E06910992A2
S315020026C00C938DED020B7FB9102000F085FD0246BA
S315020026D0C9F81C0020B99E4BEF219E48FEF7CAFEA0
S315020026E0C0E901770760C760D9F81C30196859B18B
S315020026F05A680123484693404A608B6000F062FEA6
S31502002700D9F81C3000221A602B1EB7BF23F00043F3
S31502002710002301220393ACBF336032608E4B039ECB
S31502002720B34310D142F20F730C9A1360C6F313032C
S31502002730234300F0D5841D9B884F002B00F0D784DD
S31502002740FB1C00F0D2BC9DED028BB5EE408BF1EE88
S3150200275010FA0AD101230C9A13601D9B13B1804B08
S315020027601D9A13607F4F00F0C2BC0EAAB0EE480B52
S315020027700FA9484601F010F9C6F30A530E9A0190C2
S31502002780002B45D018EE901AB0EE487BA3F2FF3329
S315020027900025C1F3130141F07F5141F44011B7EE18
S315020027A0086B07EE901A9FED645B37EE467B9FED52
S315020027B0646BA7EE056B07EE903AB8EEE74B9FED1A
S315020027C0625BB0EE467BA4EE057BB5EEC07BFDEE0A
S315020027D0C76BF1EE10FA16EE908A08D5B8EEE66BE4
S315020027E0B4EE476BF1EE10FA18BF08F1FF38B8F1F4
S315020027F0160F2DD85C4901EBC80191ED007BB4EEB2
S31502002800C78BF1EE10FA01D508F1FF38002120E05E
S315020028100F9B0125134403F232412029C9BFC1F19E
S315020028204001C1F120018E4003F21241D8BF04FAE1
S3150200283001F103F1FF33C4BF24FA01F1314307EE7C
S31502002840901AB8EE677B17EE901AA1F1F871A6E717
S315020028500121D21A0B91531E059345BFC2F1010302
S31502002860002200230592B8F1000F17DB059ACDF876
S3150200287028804244059200220792069A092A42D8E3
S31502002880052AC5BF043A002401240692069A023A92
S31502002890032A43D8DFE802F03335160AC8F10002EC
S315020028A0A3EB0803079200220A92E6E701220892A6
S315020028B0099A08EB020B0BF1010A5246012AB8BF2C
S315020028C0012206E001220892099A002A29DD93468E
S315020028D09246D9F81C700021042000F11406964293
S315020028E026D979604846049300F02CFD049B0746DE
S315020028F000283DD11D4B024640F2AF11EDE6002203
S31502002900E1E70022D3E701240022089406924FF061
S31502002910FF3B00211222DA460991DAE701220892E8
S31502002920F5E74FF0010BDA465A46CDF824B0D0E768
S3150200293001314000D1E700BF61436F63A787D23FF1
S31502002940B3C8608B288AC63FFB799F501344D33F96
S315020029504D450002644500020000F07F4945000231
S315020029603F4500023E45000268460002BD450002A0
S31502002970D9F81C20BAF10E0F10606ED8002C6CD05C
S31502002980B8F1000F40F3B48008F00F01C74A18F4FB
S31502002990807F02EBC1024FEA281192ED007B00F024
S315020029A09B80C34A01F00F0192ED086B032288EE69
S315020029B0066B8DED026BBE48002940F08F809DEDBF
S315020029C0026B86EE077B8DED027B0B999DED027BFA
S315020029D0002900F0B380B7EE006BB4EEC67BF1EED1
S315020029E010FA40F1AB80BAF1000F00F0A780BBF1FC
S315020029F0000F30DDB2EE046B08F1FF3101325C46A6
S31502002A00049127EE067B8DED027B07EE902AB1EE4E
S31502002A100C5B9DED026BB8EEE77BA7EE065B15EE4F
S31502002A20902A51EC150BA2F15071002C40F08A80CD
S31502002A30B1EE047B36EE476B41EC170BB4EEC76B77
S31502002A40F1EE10FA00F35D82B1EE477BB4EEC76B8E
S31502002A50F1EE10FA23D48DED028B0F990029C0F204
S31502002A602981B8F10E0F00F32581904B03EBC803C1
S31502002A7093ED006B099B002B80F2C880BAF1000F20
S31502002A8000F3C4800BD1B1EE047B26EE076B9DEDFD
S31502002A90027BB4EEC76BF1EE10FAC0F22F8200246D
S31502002AA02546099B3E46DB4304934FF00008214628
S31502002AB0484600F087FC002D00F0A280B8F1000F16
S31502002AC005D0A84503D04146484600F07BFC29467E
S31502002AD0484600F077FC93E002226CE7CC0704D567
S31502002AE0013290ED006B27EE067B4910083063E752
S31502002AF022D0C8F100016D4A002401F00F0009112D
S31502002B0002EBC0026A4892ED007B022228EE077BA6
S31502002B108DED027B29B9002C3FF457AF8DED027B78
S31502002B2053E7CE0705D50132012490ED006B27EE5F
S31502002B30067B49100830EDE7022246E75446CDF8F7
S31502002B40108062E7594A02EBC4023C4412ED024B82
S31502002B50089A41EC170B4AB3B6EE003B3E46B7EE77
S31502002B60002B83EE045BB2EE043B35EE477BFDEEB3
S31502002B70C64BB8EEE45B14EE902A303236EE456B65
S31502002B8006F8012BB4EEC76BF1EE10FA38D432EE2A
S31502002B90465BB4EEC75BF1EE10FA6ED4A6423FF482
S31502002BA05AAF27EE037B26EE036BE0E727EE047BA4
S31502002BB021463E46B2EE043BFDEEC64B14EE902A8B
S31502002BC0B8EEE45B303236EE456B06F8012BA642D0
S31502002BD019D1B6EE005B37EE054BB4EEC46BF1EEDF
S31502002BE010FA4ADC35EE475BB4EEC56BF1EE10FA2D
S31502002BF07FF531AF0E46013916F8013C302BF9D07C
S31502002C00DDF8108027E026EE036BD5E79DED027B0B
S31502002C10B2EE044B3E4687EE065BBDEEC55B15EE95
S31502002C20103AB8EEC53B3033A3EE467B06F8013BBD
S31502002C30F31B9A4532D137EE077BB4EEC67BF1EE33
S31502002C4010FA18DCB4EE467BF1EE10FA03D115EE5B
S31502002C50103ADB070FD40199484600F0B3FB002374
S31502002C600C9A337008F1010313601D9B002B00F0D0
S31502002C703E821E603BE2CDF8108033461E4613F8B4
S31502002C80012D392A06D19F42F8D1049A01320492C3
S31502002C9030223A701A7801321A70B1E727EE047BB5
S31502002CA0B5EE407BF1EE10FAB5D1D4E768460002E4
S31502002CB040460002089A002A00F0E580069A012A98
S31502002CC000F3C680002D00F0BF8001F23341079C5D
S31502002CD01E460B4448460493059B0B44012105936B
S31502002CE000F026FC049B054656B1059A002A07DD2C
S31502002CF0B2420599A8BF32469B1AB61A8A1A05929B
S31502002D00079A12B3089A002A00F0C1809CB129469C
S31502002D10224648460D9300F0C5FC019A0146054637
S31502002D20484600F01BFC01990490484600F04AFB15
S31502002D30049A0D9B0192079A121B06D004930199DD
S31502002D40484600F0AFFC049B0190012148460493DB
S31502002D5000F0EEFB0A9A0446049B002A00F0CD819D
S31502002D600146484600F09EFC069B0446012B049B46
S31502002D7000F39480029A002A40F08C80039AC2F3F0
S31502002D801302002A40F08880039A22F00042120DB4
S31502002D90120522B1059A01330132059201220792E8
S31502002DA00A9A002A00F0AF812269049304EB820298
S31502002DB0106900F071FB049BC0F12000059A1044D3
S31502002DC010F01F0075D0C0F12002042A69DDC0F19F
S31502002DD01C00059A0344024406440592002B05DDB5
S31502002DE01A460199484600F0B7FC0190059B002B54
S31502002DF005DD21461A46484600F0AEFC04460B9B0A
S31502002E00002B58D02146019800F012FD002852DA14
S31502002E1008F1FF330A22019948460493002300F081
S31502002E20F3FA089B0190002B00F06F8129460023DC
S31502002E300A22484600F0E8FABBF1000F054666DCB6
S31502002E40069B022B40DC62E00E99C1F136013EE799
S31502002E500AF1FF34079AA24207DBBAF1000FA2EB8E
S31502002E6004040CDB1E46514633E7079A1E460A99AE
S31502002E70A21A0794002411440A91514629E7A3EBAA
S31502002E800A06002125E7079C1E46089D2CE7079A9D
S31502002E90049354E7002282E7029A80E7002207920F
S31502002EA082E79BD01C3205991144134416440591BE
S31502002EB094E70246F6E7BAF1000FD346CDF8108042
S31502002EC021DC069B022B1EDDBBF1000F7FF4E9AD70
S31502002ED021465B460522484600F096FA014604461C
S31502002EE0019800F0A5FC00287FF7DBAD31233E46B2
S31502002EF006F8013B049B01330493D6E55446CDF80C
S31502002F0010802546F2E7089B002B00F00281002E76
S31502002F1005DD29463246484600F01EFC0546079B5B
S31502002F20002B58D06968484600F00CFA064628B9C4
S31502002F30824B024640F2EF21FFF7CFBB2A6905F129
S31502002F400C010C3002329200FFF709FB01223146D6
S31502002F50484600F001FC7B1CA8460546059307EB94
S31502002F600B030993029B03F001030893059B214679
S31502002F70019803F1FF3BFFF707FB4146029000F180
S31502002F80300A019800F054FC2A460790214648462A
S31502002F9000F06AFCC2680646FAB90146019800F0DA
S31502002FA047FC0246314648460A9200F00BFA0A9A54
S31502002FB0DDE9056342EA0301089B19430FD1BAF121
S31502002FC0390F28D0079B002B02DD029B03F1310A41
S31502002FD08BF800A06BE52846BDE70122E2E7079BD6
S31502002FE0002B04DB06990B4308990B4320D1002AD8
S31502002FF0EEDD01220199484600F0AEFB2146019022
S3150200300000F016FC002803DCE2D11AF0010FDFD033
S31502003010BAF1390FD9D139238BF8003033461E461F
S31502003020013B16F8012C392A52D001321A703EE5BC
S31502003030002A07DDBAF1390FEDD00AF101038BF848
S31502003040003034E5059B099A03F801AC934229D076
S3150200305000230A220199484600F0D6F9A8450190B4
S315020030604FF000034FF00A024146484607D100F0EE
S31502003070CBF980460546059B0133059376E700F0BA
S31502003080C3F92946804600230A22484600F0BCF9C5
S315020030900546F0E7BBF1000F4FF00008CCBF5E46D5
S315020030A001263E4401220199484600F055FB21467D
S315020030B0019000F0BDFB0028B0DC02D11AF0010F2E
S315020030C0ACD133461E4613F8012D302AFAD0EEE46F
S315020030D09F42A4D1049B0133049331233B70E6E45F
S315020030E01D9B174F1BB107F108031D9A1360384643
S315020030F011B0BDEC028BBDE8F08F069A012A7FF76C
S3150200310039AE0A9A0792012058E6BBF1000F7FF703
S31502003110D8AE3E4621460198FFF736FA00F1300A4C
S3150200312006F801ABF21B9345B4DD00230A2201998E
S31502003130484600F069F90190ECE700BFBD45000280
S315020031404045000238B50546002941D051F8043CF5
S315020031500C1F002BB8BFE41800F0E8F81D4A1368EC
S3150200316033B9636014602846BDE8384000F0E4B81D
S31502003170A34208D9206821188B4201BF19685B68EF
S3150200318009182160EDE71A465B680BB1A342FAD92A
S3150200319011685018A0420BD12068014450181160E2
S315020031A08342E0D118685B68084453601060DAE72E
S315020031B002D90C232B60D6E7206821188B4202BF66
S315020031C019685B680918636008BF21605460CAE722
S315020031D038BD00BF2C480022024B0146186800F099
S315020031E025B800BF1000002270B50F4E0C460546EA
S315020031F0316811B900F058FD30602146284600F0CA
S3150200320053FD431C03D14FF0FF34204670BDC41C4E
S3150200321024F00304A042F8D0211A284600F044FD07
S315020032200130F2D1EFE700BF284800222DE9F8432A
S31502003230CD1C064625F0030508350C2D38BF0C2596
S31502003240002D01DBA94204D90C2333600020BDE81E
S31502003250F883DFF8D48000F069F8D8F800301C460D
S3150200326044BB29463046FFF7BFFF431C044658D1EC
S31502003270D8F800402746002F43D1002C4BD02368B4
S315020032803946304604EB030900F00EFD814542D172
S31502003290216830466D1A2946FFF7A6FF01303AD05B
S315020032A023682B442360D8F800305A6862BBC8F8FA
S315020032B000700FE02268521B20D40B2A17D961191D
S315020032C0A342256018BF5960636808BFC8F800109A
S315020032D062514B60304600F02FF804F10B00231DBB
S315020032E020F00700C21A1CBF1B1AA350AFE7626880
S315020032F0A3420CBFC8F800205A60EBE72346646875
S31502003300AEE73C467F68B6E71A465B68A342FBD146
S3150200331000235360DEE70C233046336000F00CF8DE
S3150200332094E70560D6E700BF2C4800220148FFF764
S3150200333014B900BF244800220148FFF70FB900BFA5
S315020033402448002270B5C66904460D4676B9102097
S31502003350FFF742FF0246E06120B9184B6B2118487D
S31502003360FEF788F8C0E901660660C660E669F3689A
S3150200337083B1E369DB6853F82500B8B90121204619
S3150200338001FA05F6721D920000F09EFC60B1C0E9DA
S3150200339001560EE021220421204600F095FCE36945
S315020033A0F060DB68002BE4D1002070BD026843F8B0
S315020033B025200023C0E90333F7E700BF4D4500028D
S315020033C0CE45000270B5C66905460C4676B9102090
S315020033D0FFF702FF0246E86120B9094B8F2109482F
S315020033E0FEF748F8C0E901660660C6603CB1EB69C3
S315020033F06268DB6853F82210216043F8224070BDF0
S315020034004D450002CE4500022DE9F04101F1140CB2
S3150200341007460C461E460D690020DCF800300130D6
S3150200342099B2854202FB01614FEA13464FEA114304
S3150200343089B202FB063301EB03414FEA13464CF80D
S31502003440041BEADC0EB3A368AB4219DC616838469A
S315020034500131FFF777FF804628B902460C4BBA21A5
S315020034600C48FEF707F8226904F10C010C3002320F
S315020034709200FFF774F8214644463846FFF7A2FF4A
S3150200348004EB850301355E6125612046BDE8F081C6
S31502003490BD450002CE450002B0F5803F034636BF69
S315020034A0030400201020B3F1807F3CBF1B020830CA
S315020034B0B3F1805F3CBF1B010430B3F1804F3CBFC8
S315020034C09B000230002B05DB13F0804F00F1010058
S315020034D008BF202070470368024613F007000BD08E
S315020034E0D90721D4980747BF5B0801209B08022011
S315020034F04CBF13601360704799B209B91B0C1020B8
S31502003500D9B209B908301B0A190704BF1B090430CE
S31502003510990704BF9B080230D90703D45B0800F160
S31502003520010003D0136070470020704720207047C7
S3150200353010B50C460121FFF705FF024628B9054BD7
S3150200354040F245110448FDF795FF012344610361EA
S3150200355010BD00BFBD450002CE4500022DE9F04F69
S3150200356017460A69894685B03B699A42A2BF3B461D
S315020035700F4699463D69BB68D9F810A0796805EBF4
S315020035800A06B342B8BF0131FFF7DCFE30B9024684
S31502003590424B4FF4B1714248FDF76CFF00F114043F
S315020035A0002204EB860E2346734520D307F1140846
S315020035B009F1140108EB850501EB8A030293EB1B63
S315020035C01537153B23F003030433BD4238BF0423EA
S315020035D00193029B03918B420CD8002E03DD5EF809
S315020035E0043D002B57D0066105B0BDE8F08F43F8C5
S315020035F0042BD9E7B1F800A0BAF1000F21D0C446D6
S31502003600A14600275CF8042BD9F800301FFA82FB8A
S3150200361065459BB24FEA12420AFB0B333B44D9F88B
S3150200362000704FEA17470AFB027202EB13429BB283
S315020036304FEA124743EA024349F8043BE2D8019BA8
S31502003640E750039B0431B3F80290B9F1000F20D082
S3150200365023684746A4464FF0000AB7F800B09BB26B
S31502003660BCF8022009FB0B22524443EA02434CF8FF
S31502003670043B57F8043B4FEA134ABCF80030BD42FC
S3150200368009FB0A3303EB12434FEA134AE5D8019AC0
S31502003690A35004349DE7013E9FE700BFBD450002EB
S315020036A0CE4500022DE9F843154612F003020746FD
S315020036B00E4607D0013A254C002354F82220FFF784
S315020036C0A3FE0646AD103DD0FC697CB91020FFF77B
S315020036D083FD0246F86128B91D4B40F2B3111D481D
S315020036E0FDF7C8FEC0E901440460C460D7F81C8037
S315020036F0D8F808404CB940F271213846FFF718FF56
S3150200370000230446C8F8080003604FF00009EB07DF
S315020037100AD5314622463846FFF720FF8046314613
S3150200372038464646FFF74EFE6D100BD0206838B974
S31502003730224621463846FFF711FF2060C0F8009066
S315020037400446E4E73046BDE8F88300BF344600028B
S315020037504D450002CE4500022DE9F0470C460746CC
S3150200376091464FEA621A2369496803EB6218A36815
S3150200377008F10106B3420BDB3846FFF7E3FD0546C7
S3150200378048B90246284B4FF4EF712848FDF772FEFE
S3150200379001315B00EEE7002300F1140100F1100293
S315020037A01846534533DB2AEAEA7A04F11403206900
S315020037B019F01F0901EB8A0103EB800C2BD0C9F12A
S315020037C0200E8A460022186800FA09F010434AF8C9
S315020037D0040B53F8042B9C4522FA0EF2F3D8ACEBF9
S315020037E0040304F11500153B23F00303043360457B
S315020037F088BF0423CA500AB108F10206013E3846C0
S3150200380021462E61FFF7DEFD2846BDE8F08701332B
S3150200381042F8040FC5E7043953F8042B9C4541F8D6
S31502003820042FF9D8EAE700BFBD450002CE450002E3
S3150200383003460A690069801A30B50ED11433143171
S3150200384003EB820401EB820154F8045D51F8042D66
S31502003850954203D005D24FF0FF3030BDA342F3D3D9
S31502003860FBE70120F9E700002DE9F74F89460646F6
S31502003870114614464846FFF7DBFF051E12D12946BC
S315020038803046FFF75FFD024628B9414B40F2372129
S315020038904048FDF7EFFD0123C0E90435104603B0A9
S315020038A0BDE8F08FBCBF4B46A1463046B8BF0125E6
S315020038B0D9F80410B4BF1C460025FFF743FD0246A3
S315020038C018B9334B40F24521E2E7D9F8107004F1FA
S315020038D0140E266900F1140BC56009F1140509F1ED
S315020038E010030EEB860605EB8708D9464FF0000C4F
S315020038F00193019B5EF8040B53F804AF76450193DE
S315020039001FFA8AF3194683B24FEA1040A1EB03036A
S31502003910C0EB1A40634400EB23409BB24FEA204CB3
S3150200392043EA004349F8043BE3D8331B1534153BFD
S3150200393023F003030433A64238BF04231D445B4429
S315020039402C461E4644450ED308F10301491B033D8E
S3150200395021F00301A84538BF00210B4453F8041D8A
S3150200396099B117619AE754F8041BE6461FFA81FCDF
S31502003970080C7144F44489B200EB2C4041EA004140
S315020039804FEA204C46F8041BDCE7013FE6E700BF9E
S31502003990BD450002CE4500022DE9F7430F4601213F
S315020039A0164659EC108BFFF7CDFC044630B9024699
S315020039B0234B40F20F312348FDF75CFDC9F30A554C
S315020039C0C9F313030DB143F480130193B8F1000355
S315020039D023D068460093FFF77EFDDDE90012D0B1E1
S315020039E0C0F1200302FA03F3C2400B430192636162
S315020039F0019B002BA3610CBF012202222261A5B109
S31502003A00A5F233450544C0F135003D6030602046DD
S31502003A1003B0BDE8F0836161EAE701A8FFF75BFD49
S31502003A20019B203001226361E8E7A0F2324004EBF9
S31502003A30820338601869FFF72FFDC0EB4210E5E7F5
S31502003A40BD450002CE450002B1F90C202DE9F04138
S31502003A50160705460C4654D44B68002B02DC0B6C49
S31502003A60002B48DDE66A002E45D0002312F4805270
S31502003A702F68216A2B6030D0626DA389590705D55C
S31502003A806368D21A636B0BB1236CD21A0023E66AFF
S31502003A90216A2846B047431CA38906D129681D29F5
S31502003AA02BD82A4ACA40D60727D50022D9046260F3
S31502003AB02269226004D5421C01D12B6803B96065D4
S31502003AC0616B2F60B9B104F14403994202D02846D2
S31502003AD0FFF738FB002363630DE001232846B04756
S31502003AE00246501CC9D12B68002BC6D01D2B01D013
S31502003AF0162B1DD12F60002021E043F040031BB29C
S31502003B001AE00F69002FF6D093070E680F600CBFFC
S31502003B104B690023A6EB07088B60B8F1000FEADDBC
S31502003B2043463A46216A2846A66AB047002808DC78
S31502003B30B4F90C3043F040034FF0FF30A381BDE8E7
S31502003B40F0810744A8EB0008E7E700BF0100402028
S31502003B5038B50B6905460C4613B90025284638BD0B
S31502003B6018B1036A0BB9FEF77FFAB4F90C30002BD1
S31502003B70F3D0626ED00704D4990502D4A06DFEF785
S31502003B80ECFC28462146FFF75FFF636E0546DA071F
S31502003B90E4D4A3899B05E1D4A06DFEF7DFFCDDE743
S31502003BA070B50C46B1F90E1096B0154600291E46A0
S31502003BB00CDAA389002113F0800F14BF40234FF4BF
S31502003BC08063002031602B6016B070BD6A4600F03B
S31502003BD049F80028EDDB019901F47041A1F5005383
S31502003BE0594259414FF48063EBE78B89F7B59D073C
S31502003BF006460C4607D504F14703236023610123D9
S31502003C00636103B0F0BD01AB6A46FFF7C9FF009FCF
S31502003C10054630463946FFF709FB48B9B4F90C3078
S31502003C209A05EED423F0030343F00203A381E2E7ED
S31502003C30A389206043F08003A381019BC4E90407A2
S31502003C405BB1B4F90E10304600F01EF828B1A38914
S31502003C5023F0030343F00103A381A3891D43A58136
S31502003C60CFE7000038B50023064D04460846114644
S31502003C702B6000F065F8431C02D12B6803B1236068
S31502003C8038BD00BF2048002238B50023054D044642
S31502003C9008462B6000F05CF8431C02D12B6803B186
S31502003CA0236038BD2048002238B50023054D04465E
S31502003CB008462B60FDF7BCFC431C02D12B6803B1FE
S31502003CC0236038BD2048002270B5A1FB025434B9E6
S31502003CD02946FFF7ABFA064628B9304670BD0C22D4
S31502003CE000260260F9E72A462146FEF7DDFBF4E7E5
S31502003CF082B001B901A942B14BB113780B601278B7
S31502003D00101E18BF012002B070471046FBE76FF085
S31502003D100100F8E70346084641B1FF2A04D98A2280
S31502003D204FF0FF301A60704701200A70704700009A
S31502003D30024B58224FF0FF301A607047204800228B
S31502003D40024B58224FF0FF301A607047204800227B
S31502003D50024B582200201A60704700BF20480022FA
S31502003D60024B58224FF0FF301A607047204800225B
S31502003D70024B58224FF0FF301A607047204800224B
S31502003D8068656C6C6F20776F726C64003446002233
S31502003D90983D0002C0420002090200000C000C011C
S31502003DA00C020C03000000000000000000000000EE
S31502003DB000000000B83D00020001000000000022E1
S31502003DC00F00FFFF00000001010000009C00000040
S31502003DD0D83D000200000000004000000000000084
S31502003DE0004000000600000000400000080000003D
S31502003DF00040000009000000004000000C00000026
S31502003E00450000000D000000000C011C000100002E
S31502003E10000C011C01010000000C011C0201000043
S31502003E20000C011C03010000000C011C040100002F
S31502003E30000C011C05010000000C011C060100001B
S31502003E4000400000070100004504000009010000CF
S31502003E50104000000B010000000C010B0C010000D9
S31502003E60000C010B0D010000000C010B0E010000FD
S31502003E70000C010B0F0100000040000000020000D0
S31502003E80000C011806020000000C011907020000CE
S31502003E9000000105080200000000010509020000F9
S31502003EA0000001000A020000000001000B020000EF
S31502003EB0000C010B00030000000C010B01030000C3
S31502003EC0000C010B02030000040C000003030000B7
S31502003ED0000C011804030000000C01180503000081
S31502003EE0000C011806030000000C0118070300006D
S31502003EF0000C011809030000000C01180A03000057
S31502003F00400C010700040000400C010701040000F8
S31502003F100000011202040000000001120304000066
S31502003F20000001120404000000040112050400004E
S31502003F300004011206040000000401130704000035
S31502003F4000040114080400000004011F0B04000011
S31502003F50000401180E040000000401180F040000FA
S31502003F600000011300050000000C0103010500001A
S31502003F700004011B02050000000C010B03050000F2
S31502003F80000C010B04050000000C010B05050000E6
S31502003F90000C010B06050000000C010B07050000D2
S31502003FA0000C010B08050000000C010B09050000BE
S31502003FB0000C010B0A050000400401070B05000076
S31502003FC0400401070C050000000C01190D05000054
S31502003FD0040400000E050000000C01190F05000084
S31502003FE0040C00000006000004040000060600009F
S31502003FF0000C010B07060000000C010B080600006E
S31502004000000C010B09060000000C010B0A06000059
S31502004010000C010B0B060000000C010B0C06000045
S31502004020000C010B0D060000000C010B0E06000031
S31502004030000C010B0F060000000C01190707000017
S315020040400504000008070000040400000907000038
S31502004050000C01190A070000000C01190B070000E9
S31502004060000C01190C070000000C01190D070000D5
S31502004070000C01190E070000000C01190F070000C1
S31502004080000C011C00080000000C011C01080000C5
S31502004090000C011C02080000000C011C03080000B1
S315020040A0000C011C04080000000C011905080000A0
S315020040B0000C011906080000000C0119070800008F
S315020040C0000C011C080800000004011B0C0800007B
S315020040D0000C010B0D080000000C01130E08000075
S315020040E0000C01130F080000000C01190209000060
S315020040F0000C011903090000000C01190409000053
S31502004100000C011805090000000C01180609000040
S31502004110000C011807090000000C0118080900002C
S31502004120000C011809090000000C01190A09000017
S31502004130000C01190B090000000C01190C09000002
S31502004140000C01190D090000000C01190E090000EE
S31502004150000C01190F090000000C010B000A0000F7
S31502004160000C010B010A0000000C010B020A000000
S31502004170000C010B030A0000000C010B040A0000EC
S31502004180000C010B050A0000000C010B060A0000D8
S31502004190040C0000070A0000000C010B080A0000CC
S315020041A0000C010B090A0000000C010B0A0A0000B0
S315020041B0000C010B0B0A0000000C010B0C0A00009C
S315020041C0000C010B0D0A0000000C010B0E0A000088
S315020041D0000C010B0F0A0000000C0119000B000075
S315020041E0000C0119010B0000000C0119020B000062
S315020041F0000C0119030B0000000C0119040B00004E
S31502004200000C0119050B0000000C0119060B000039
S31502004210000C0119070B0000000C010B000C00003A
S31502004220000C010B010C0000000C010B020C00003B
S31502004230000C010B030C0000000C010B040C000027
S31502004240000C010B050C0000000C010B060C000013
S31502004250000C010B070C0000000C010B080C0000FF
S31502004260000C010B090C0000000C010B0A0C0000EB
S31502004270000C010B0B0C0000000C010B0C0C0000D7
S31502004280000C010B0D0C0000000C010B0E0C0000C3
S31502004290000C010B0F0C0000000C010B000D0000BE
S315020042A0000C0104020D0000000C0104030D0000C5
S315020042B000040114070D00000303040305030603AB
S315020042C04D0600022D030002390300021906000200
S315020042D0890300029503000279030002A904000281
S315020042E0DD030002F1030002490600020204030490
S315020042F0040400000A000000AC440002180000009A
S315020043002C430002040000000C4300020000006877
S3150200431000000068000000800000008000000070BD
S3150200432000000070E0010022E001002200000068A7
S3150200433000000068000000900001090D00000068FE
S31502004340000000680000007800010B0D0000006804
S3150200435000000068000000270001020D000000684E
S3150200436000000068500000020001010D00000080FC
S315020043700000008000000090000109080000008093
S31502004380000000800000007800010B080000008099
S3150200439000000080000000270001020800000080E3
S315020043A000000080500000020001010800000070B9
S315020043B000000070000000900001090A0000007071
S315020043C0000000700000007800010B0A0000007077
S315020043D000000070000000270001020A00000070C1
S315020043E000000070500000020001010A00000000F7
S315020043F00000000000000090010109050000000015
S31502004400000000000000007801010B05000000001A
S315020044100000000000000027010002050000000065
S31502004420000000005000000201000105000000200B
S315020044300000002000000090010109040000002095
S31502004440000000200000007801010B04000000209B
S3150200445000000020000000270100020400000020E6
S3150200446000000020500000020100010400000022AA
S315020044700000002200000090000109030000002253
S31502004480000000220000007800010B030000002259
S3150200449000000022000000270000020300000022A4
S315020044A0CC01002250000002000001030000006857
S315020044B0000000680001000D0000006800000068AE
S315020044C00001000D000000800000008000010008CD
S315020044D0000000800000008000010008000000705B
S315020044E0000000700001000A000000700000007069
S315020044F00001000A000000000000000001000005A3
S31502004500000000200000002001000004CC0100226F
S31502004510E00100220000000310460022304800227B
S315020045200000000301000200080010002000494EAE
S315020045304600696E66004E414E006E616E003000A6
S31502004540496E66696E697479004E614E0052454540
S315020045504E54206D616C6C6F632073756363656581
S31502004560646564002F646174612F6A656E6B696E9F
S31502004570732F776F726B73706163652F474E552D7C
S31502004580746F6F6C636861696E2F61726D2D313362
S315020045902F7372632F6E65776C69622D6379677705
S315020045A0696E2F6E65776C69622F6C6962632F7311
S315020045B074646C69622F64746F612E630042616C6D
S315020045C06C6F6320737563636565646564002F644D
S315020045D06174612F6A656E6B696E732F776F726B8A
S315020045E073706163652F474E552D746F6F6C6368E8
S315020045F061696E2F61726D2D31332F7372632F6E67
S3150200460065776C69622D63796777696E2F6E657758
S315020046106C69622F6C6962632F7374646C69622FB2
S315020046206D707265632E63004300504F5349580004
S315020046302E00000005000000190000007D000000A9
S315020046400080E03779C34143176E05B5B5B8934686
S31502004650F5F93FE9034F384D321D30F94877825A52
S315020046603CBF737FDD4F1575000000000000F03F70
S315020046700000000000002440000000000000594035
S315020046800000000000408F40000000000088C34088
S3150200469000000000006AF8400000000080842E41FD
S315020046A000000000D01263410000000084D7974149
S315020046B00000000065CDCD41000000205FA002424F
S315020046C0000000E876483742000000A2941A6D42C4
S315020046D0000040E59C30A2420000901EC4BCD642B7
S315020046E000003426F56B0C430080E03779C3414362
S315020046F000A0D8855734764300C84E676DC1AB43D8
S31502004700003D9160E458E143408CB5781DAF1544F5
S3150200471050EFE2D6E41A4B4492D54D06CFF08044D0
S31502004720F64AE1C7022DB544B49DD9794378EA44E5
S315020047300020202020202020202028282828282069
S315020047402020202020202020202020202020202061
S3150200475020881010101010101010101010101010C9
S3150200476010040404040404040404041010101010B9
S315020047701010414141414141010101010101010183
S3150200478001010101010101010101010110101010D5
S315020047901010424242424242020202020202020255
S315020047A002020202020202020202020210101010A9
S315020047B020000000000000000000000000000000D1
S315020047C000000000000000000000000000000000E1
S315020047D000000000000000000000000000000000D1
S315020047E000000000000000000000000000000000C1
S315020047F000000000000000000000000000000000B1
S3150200480000000000000000000000000000000000A0
S315020048100000000000000000000000000000000090
S315020048200000000000000000000000000000000080
S31502004830000000004275696C742077697468205222
S31502004840656E6573617320416476616E636564208B
S31502004850466C657869626C6520536F66747761721F
S3150200486065205061636B6167652076657273696F57
S315020048706E20362E342E3000362E342E30000000B6
S309020048800000040622
S30902004884F8B500BFBC
S30902004888F8B500BFB8
S3090200488C8D0200028F
S3090200489065020002B3
S30D02004894E4DCFF7F01000000D5
S30902C9F040FFFFFFFFFF
S30902C9F044EFFFFFFF0B
S30902C9F0C0FFFFFFFD81
S30902C9F0C4FFFFFFFF7B
S30902C9F120000000001A
S30902C9F1240000000016
S705020016657D
